{
  "abi": [
    {
      "type": "constructor",
      "inputs": [],
      "stateMutability": "nonpayable"
    },
    {
      "type": "function",
      "name": "addRecord",
      "inputs": [
        {
          "name": "_recordId",
          "type": "string",
          "internalType": "string"
        },
        {
          "name": "_dataHash",
          "type": "bytes32",
          "internalType": "bytes32"
        },
        {
          "name": "_expiration",
          "type": "uint256",
          "internalType": "uint256"
        },
        {
          "name": "_credentialType",
          "type": "uint8",
          "internalType": "enum CredentialVerifier.CredentialType"
        }
      ],
      "outputs": [],
      "stateMutability": "nonpayable"
    },
    {
      "type": "function",
      "name": "authorizedSigners",
      "inputs": [
        {
          "name": "",
          "type": "address",
          "internalType": "address"
        }
      ],
      "outputs": [
        {
          "name": "",
          "type": "bool",
          "internalType": "bool"
        }
      ],
      "stateMutability": "view"
    },
    {
      "type": "function",
      "name": "hasSigned",
      "inputs": [
        {
          "name": "recordId",
          "type": "string",
          "internalType": "string"
        },
        {
          "name": "signer",
          "type": "address",
          "internalType": "address"
        }
      ],
      "outputs": [
        {
          "name": "",
          "type": "bool",
          "internalType": "bool"
        }
      ],
      "stateMutability": "view"
    },
    {
      "type": "function",
      "name": "isFullySigned",
      "inputs": [
        {
          "name": "recordId",
          "type": "string",
          "internalType": "string"
        }
      ],
      "outputs": [
        {
          "name": "",
          "type": "bool",
          "internalType": "bool"
        }
      ],
      "stateMutability": "view"
    },
    {
      "type": "function",
      "name": "owner",
      "inputs": [],
      "outputs": [
        {
          "name": "",
          "type": "address",
          "internalType": "address"
        }
      ],
      "stateMutability": "view"
    },
    {
      "type": "function",
      "name": "records",
      "inputs": [
        {
          "name": "",
          "type": "string",
          "internalType": "string"
        }
      ],
      "outputs": [
        {
          "name": "dataHash",
          "type": "bytes32",
          "internalType": "bytes32"
        },
        {
          "name": "expiration",
          "type": "uint256",
          "internalType": "uint256"
        },
        {
          "name": "isRevoked",
          "type": "bool",
          "internalType": "bool"
        },
        {
          "name": "credentialType",
          "type": "uint8",
          "internalType": "enum CredentialVerifier.CredentialType"
        },
        {
          "name": "currentSignatures",
          "type": "uint8",
          "internalType": "uint8"
        }
      ],
      "stateMutability": "view"
    },
    {
      "type": "function",
      "name": "requiredSignatureCount",
      "inputs": [
        {
          "name": "",
          "type": "uint8",
          "internalType": "enum CredentialVerifier.CredentialType"
        }
      ],
      "outputs": [
        {
          "name": "",
          "type": "uint8",
          "internalType": "uint8"
        }
      ],
      "stateMutability": "view"
    },
    {
      "type": "function",
      "name": "requiredSigners",
      "inputs": [
        {
          "name": "",
          "type": "uint8",
          "internalType": "enum CredentialVerifier.CredentialType"
        },
        {
          "name": "",
          "type": "uint256",
          "internalType": "uint256"
        }
      ],
      "outputs": [
        {
          "name": "",
          "type": "address",
          "internalType": "address"
        }
      ],
      "stateMutability": "view"
    },
    {
      "type": "function",
      "name": "restoreRecord",
      "inputs": [
        {
          "name": "_recordId",
          "type": "string",
          "internalType": "string"
        }
      ],
      "outputs": [],
      "stateMutability": "nonpayable"
    },
    {
      "type": "function",
      "name": "revokeRecord",
      "inputs": [
        {
          "name": "_recordId",
          "type": "string",
          "internalType": "string"
        }
      ],
      "outputs": [],
      "stateMutability": "nonpayable"
    },
    {
      "type": "function",
      "name": "setAuthorizedSigner",
      "inputs": [
        {
          "name": "signer",
          "type": "address",
          "internalType": "address"
        },
        {
          "name": "allowed",
          "type": "bool",
          "internalType": "bool"
        }
      ],
      "outputs": [],
      "stateMutability": "nonpayable"
    },
    {
      "type": "function",
      "name": "setRequiredSigners",
      "inputs": [
        {
          "name": "_type",
          "type": "uint8",
          "internalType": "enum CredentialVerifier.CredentialType"
        },
        {
          "name": "signers",
          "type": "address[]",
          "internalType": "address[]"
        }
      ],
      "outputs": [],
      "stateMutability": "nonpayable"
    },
    {
      "type": "function",
      "name": "signRecord",
      "inputs": [
        {
          "name": "recordId",
          "type": "string",
          "internalType": "string"
        }
      ],
      "outputs": [],
      "stateMutability": "nonpayable"
    }
  ],
  "bytecode": {
    "object": "0x60806040523480156200001157600080fd5b50336000806101000a81548173ffffffffffffffffffffffffffffffffffffffff021916908373ffffffffffffffffffffffffffffffffffffffff1602179055506001600260008060098111156200006e576200006d620003c4565b5b6009811115620000835762000082620003c4565b5b815260200190815260200160002060006101000a81548160ff021916908360ff160217905550600280600060016009811115620000c557620000c4620003c4565b5b6009811115620000da57620000d9620003c4565b5b815260200190815260200160002060006101000a81548160ff021916908360ff160217905550600160026000600360098111156200011d576200011c620003c4565b5b6009811115620001325762000131620003c4565b5b815260200190815260200160002060006101000a81548160ff021916908360ff16021790555060016002600060026009811115620001755762000174620003c4565b5b60098111156200018a5762000189620003c4565b5b815260200190815260200160002060006101000a81548160ff021916908360ff16021790555060016002600060066009811115620001cd57620001cc620003c4565b5b6009811115620001e257620001e1620003c4565b5b815260200190815260200160002060006101000a81548160ff021916908360ff16021790555060016002600060076009811115620002255762000224620003c4565b5b60098111156200023a5762000239620003c4565b5b815260200190815260200160002060006101000a81548160ff021916908360ff160217905550600160026000600860098111156200027d576200027c620003c4565b5b6009811115620002925762000291620003c4565b5b815260200190815260200160002060006101000a81548160ff021916908360ff16021790555060016002600060046009811115620002d557620002d4620003c4565b5b6009811115620002ea57620002e9620003c4565b5b815260200190815260200160002060006101000a81548160ff021916908360ff1602179055506002806000600560098111156200032c576200032b620003c4565b5b6009811115620003415762000340620003c4565b5b815260200190815260200160002060006101000a81548160ff021916908360ff160217905550600460026000600980811115620003835762000382620003c4565b5b6009811115620003985762000397620003c4565b5b815260200190815260200160002060006101000a81548160ff021916908360ff160217905550620003f3565b7f4e487b7100000000000000000000000000000000000000000000000000000000600052602160045260246000fd5b611a8980620004036000396000f3fe608060405234801561001057600080fd5b50600436106100cf5760003560e01c80639f8246ce1161008c578063dc5fdd2d11610066578063dc5fdd2d1461023a578063e9dd9d4914610256578063f0783dcd14610286578063fda2a151146102a2576100cf565b80639f8246ce146101d2578063c8468316146101ee578063d3b5c0b81461020a576100cf565b8063318f70a0146100d45780633ae718f0146101045780633d4c04ec14610120578063541e771d146101505780635d2b6a4e146101845780638da5cb5b146101b4575b600080fd5b6100ee60048036038101906100e99190610dae565b6102be565b6040516100fb9190610df7565b60405180910390f35b61011e60048036038101906101199190610ea8565b6102de565b005b61013a60048036038101906101359190610f4d565b610341565b6040516101479190610fa9565b60405180910390f35b61016a60048036038101906101659190611105565b6103df565b60405161017b9594939291906111f7565b60405180910390f35b61019e6004803603810190610199919061124a565b610452565b6040516101ab9190610fa9565b60405180910390f35b6101bc610472565b6040516101c99190611286565b60405180910390f35b6101ec60048036038101906101e79190610f4d565b610496565b005b61020860048036038101906102039190610f4d565b61054e565b005b610224600480360381019061021f91906112cd565b610607565b6040516102319190611286565b60405180910390f35b610254600480360381019061024f9190610f4d565b610655565b005b610270600480360381019061026b919061130d565b6109cc565b60405161027d9190610fa9565b60405180910390f35b6102a0600480360381019061029b91906113c3565b610a45565b005b6102bc60048036038101906102b7919061144f565b610b32565b005b60026020528060005260406000206000915054906101000a900460ff1681565b6102e6610c28565b80600160008473ffffffffffffffffffffffffffffffffffffffff1673ffffffffffffffffffffffffffffffffffffffff16815260200190815260200160002060006101000a81548160ff0219169083151502179055505050565b60008060038484604051610356929190611507565b90815260200160405180910390209050600260008260020160019054906101000a900460ff16600981111561038e5761038d611180565b5b60098111156103a05761039f611180565b5b815260200190815260200160002060009054906101000a900460ff1660ff168160020160029054906101000a900460ff1660ff16101591505092915050565b6003818051602081018201805184825260208301602085012081835280955050505050506000915090508060000154908060010154908060020160009054906101000a900460ff16908060020160019054906101000a900460ff16908060020160029054906101000a900460ff16905085565b60016020528060005260406000206000915054906101000a900460ff1681565b60008054906101000a900473ffffffffffffffffffffffffffffffffffffffff1681565b61049e610c28565b600382826040516104b0929190611507565b908152602001604051809103902060020160009054906101000a900460ff1661050e576040517f08c379a00000000000000000000000000000000000000000000000000000000081526004016105059061157d565b60405180910390fd5b600060038383604051610522929190611507565b908152602001604051809103902060020160006101000a81548160ff0219169083151502179055505050565b610556610c28565b60038282604051610568929190611507565b908152602001604051809103902060020160009054906101000a900460ff16156105c7576040517f08c379a00000000000000000000000000000000000000000000000000000000081526004016105be906115e9565b60405180910390fd5b6001600383836040516105db929190611507565b908152602001604051809103902060020160006101000a81548160ff0219169083151502179055505050565b6004602052816000526040600020818154811061062357600080fd5b906000526020600020016000915091509054906101000a900473ffffffffffffffffffffffffffffffffffffffff1681565b600060038383604051610669929190611507565b908152602001604051809103902090506000801b8160000154036106c2576040517f08c379a00000000000000000000000000000000000000000000000000000000081526004016106b990611655565b60405180910390fd5b8060020160009054906101000a900460ff1615610714576040517f08c379a000000000000000000000000000000000000000000000000000000000815260040161070b906116c1565b60405180910390fd5b60008160010154148061072b575080600101544211155b61076a576040517f08c379a00000000000000000000000000000000000000000000000000000000081526004016107619061172d565b60405180910390fd5b600160003373ffffffffffffffffffffffffffffffffffffffff1673ffffffffffffffffffffffffffffffffffffffff16815260200190815260200160002060009054906101000a900460ff166107f6576040517f08c379a00000000000000000000000000000000000000000000000000000000081526004016107ed90611799565b60405180910390fd5b8060030160003373ffffffffffffffffffffffffffffffffffffffff1673ffffffffffffffffffffffffffffffffffffffff16815260200190815260200160002060009054906101000a900460ff1615610885576040517f08c379a000000000000000000000000000000000000000000000000000000000815260040161087c90611805565b60405180910390fd5b600260008260020160019054906101000a900460ff1660098111156108ad576108ac611180565b5b60098111156108bf576108be611180565b5b815260200190815260200160002060009054906101000a900460ff1660ff168160020160029054906101000a900460ff1660ff1610610933576040517f08c379a000000000000000000000000000000000000000000000000000000000815260040161092a90611871565b60405180910390fd5b60018160030160003373ffffffffffffffffffffffffffffffffffffffff1673ffffffffffffffffffffffffffffffffffffffff16815260200190815260200160002060006101000a81548160ff02191690831515021790555080600201600281819054906101000a900460ff16809291906109ae906118c0565b91906101000a81548160ff021916908360ff16021790555050505050565b6000600384846040516109e0929190611507565b908152602001604051809103902060030160008373ffffffffffffffffffffffffffffffffffffffff1673ffffffffffffffffffffffffffffffffffffffff16815260200190815260200160002060009054906101000a900460ff1690509392505050565b610a4d610c28565b60008282905011610a93576040517f08c379a0000000000000000000000000000000000000000000000000000000008152600401610a8a90611935565b60405180910390fd5b818160046000866009811115610aac57610aab611180565b5b6009811115610abe57610abd611180565b5b81526020019081526020016000209190610ad9929190610cb8565b508181905060026000856009811115610af557610af4611180565b5b6009811115610b0757610b06611180565b5b815260200190815260200160002060006101000a81548160ff021916908360ff160217905550505050565b610b3a610c28565b600060038686604051610b4e929190611507565b908152602001604051809103902090506000801b816000015414610ba7576040517f08c379a0000000000000000000000000000000000000000000000000000000008152600401610b9e906119a1565b60405180910390fd5b83816000018190555082816001018190555060008160020160006101000a81548160ff021916908315150217905550818160020160016101000a81548160ff02191690836009811115610bfd57610bfc611180565b5b021790555060008160020160026101000a81548160ff021916908360ff160217905550505050505050565b60008054906101000a900473ffffffffffffffffffffffffffffffffffffffff1673ffffffffffffffffffffffffffffffffffffffff163373ffffffffffffffffffffffffffffffffffffffff1614610cb6576040517f08c379a0000000000000000000000000000000000000000000000000000000008152600401610cad90611a33565b60405180910390fd5b565b828054828255906000526020600020908101928215610d47579160200282015b82811115610d4657823573ffffffffffffffffffffffffffffffffffffffff168260006101000a81548173ffffffffffffffffffffffffffffffffffffffff021916908373ffffffffffffffffffffffffffffffffffffffff16021790555091602001919060010190610cd8565b5b509050610d549190610d58565b5090565b5b80821115610d71576000816000905550600101610d59565b5090565b6000604051905090565b600080fd5b600080fd5b600a8110610d9657600080fd5b50565b600081359050610da881610d89565b92915050565b600060208284031215610dc457610dc3610d7f565b5b6000610dd284828501610d99565b91505092915050565b600060ff82169050919050565b610df181610ddb565b82525050565b6000602082019050610e0c6000830184610de8565b92915050565b600073ffffffffffffffffffffffffffffffffffffffff82169050919050565b6000610e3d82610e12565b9050919050565b610e4d81610e32565b8114610e5857600080fd5b50565b600081359050610e6a81610e44565b92915050565b60008115159050919050565b610e8581610e70565b8114610e9057600080fd5b50565b600081359050610ea281610e7c565b92915050565b60008060408385031215610ebf57610ebe610d7f565b5b6000610ecd85828601610e5b565b9250506020610ede85828601610e93565b9150509250929050565b600080fd5b600080fd5b600080fd5b60008083601f840112610f0d57610f0c610ee8565b5b8235905067ffffffffffffffff811115610f2a57610f29610eed565b5b602083019150836001820283011115610f4657610f45610ef2565b5b9250929050565b60008060208385031215610f6457610f63610d7f565b5b600083013567ffffffffffffffff811115610f8257610f81610d84565b5b610f8e85828601610ef7565b92509250509250929050565b610fa381610e70565b82525050565b6000602082019050610fbe6000830184610f9a565b92915050565b600080fd5b6000601f19601f8301169050919050565b7f4e487b7100000000000000000000000000000000000000000000000000000000600052604160045260246000fd5b61101282610fc9565b810181811067ffffffffffffffff8211171561103157611030610fda565b5b80604052505050565b6000611044610d75565b90506110508282611009565b919050565b600067ffffffffffffffff8211156110705761106f610fda565b5b61107982610fc9565b9050602081019050919050565b82818337600083830152505050565b60006110a86110a384611055565b61103a565b9050828152602081018484840111156110c4576110c3610fc4565b5b6110cf848285611086565b509392505050565b600082601f8301126110ec576110eb610ee8565b5b81356110fc848260208601611095565b91505092915050565b60006020828403121561111b5761111a610d7f565b5b600082013567ffffffffffffffff81111561113957611138610d84565b5b611145848285016110d7565b91505092915050565b6000819050919050565b6111618161114e565b82525050565b6000819050919050565b61117a81611167565b82525050565b7f4e487b7100000000000000000000000000000000000000000000000000000000600052602160045260246000fd5b600a81106111c0576111bf611180565b5b50565b60008190506111d1826111af565b919050565b60006111e1826111c3565b9050919050565b6111f1816111d6565b82525050565b600060a08201905061120c6000830188611158565b6112196020830187611171565b6112266040830186610f9a565b61123360608301856111e8565b6112406080830184610de8565b9695505050505050565b6000602082840312156112605761125f610d7f565b5b600061126e84828501610e5b565b91505092915050565b61128081610e32565b82525050565b600060208201905061129b6000830184611277565b92915050565b6112aa81611167565b81146112b557600080fd5b50565b6000813590506112c7816112a1565b92915050565b600080604083850312156112e4576112e3610d7f565b5b60006112f285828601610d99565b9250506020611303858286016112b8565b9150509250929050565b60008060006040848603121561132657611325610d7f565b5b600084013567ffffffffffffffff81111561134457611343610d84565b5b61135086828701610ef7565b9350935050602061136386828701610e5b565b9150509250925092565b60008083601f84011261138357611382610ee8565b5b8235905067ffffffffffffffff8111156113a05761139f610eed565b5b6020830191508360208202830111156113bc576113bb610ef2565b5b9250929050565b6000806000604084860312156113dc576113db610d7f565b5b60006113ea86828701610d99565b935050602084013567ffffffffffffffff81111561140b5761140a610d84565b5b6114178682870161136d565b92509250509250925092565b61142c8161114e565b811461143757600080fd5b50565b60008135905061144981611423565b92915050565b60008060008060006080868803121561146b5761146a610d7f565b5b600086013567ffffffffffffffff81111561148957611488610d84565b5b61149588828901610ef7565b955095505060206114a88882890161143a565b93505060406114b9888289016112b8565b92505060606114ca88828901610d99565b9150509295509295909350565b600081905092915050565b60006114ee83856114d7565b93506114fb838584611086565b82840190509392505050565b60006115148284866114e2565b91508190509392505050565b600082825260208201905092915050565b7f5265636f7264206973206e6f74207265766f6b65640000000000000000000000600082015250565b6000611567601583611520565b915061157282611531565b602082019050919050565b600060208201905081810360008301526115968161155a565b9050919050565b7f5265636f726420697320616c7265616479207265766f6b656400000000000000600082015250565b60006115d3601983611520565b91506115de8261159d565b602082019050919050565b60006020820190508181036000830152611602816115c6565b9050919050565b7f5265636f726420646f6573206e6f742065786973740000000000000000000000600082015250565b600061163f601583611520565b915061164a82611609565b602082019050919050565b6000602082019050818103600083015261166e81611632565b9050919050565b7f5265636f7264207265766f6b6564000000000000000000000000000000000000600082015250565b60006116ab600e83611520565b91506116b682611675565b602082019050919050565b600060208201905081810360008301526116da8161169e565b9050919050565b7f5265636f72642065787069726564000000000000000000000000000000000000600082015250565b6000611717600e83611520565b9150611722826116e1565b602082019050919050565b600060208201905081810360008301526117468161170a565b9050919050565b7f4e6f7420617574686f72697a6564000000000000000000000000000000000000600082015250565b6000611783600e83611520565b915061178e8261174d565b602082019050919050565b600060208201905081810360008301526117b281611776565b9050919050565b7f416c7265616479207369676e6564000000000000000000000000000000000000600082015250565b60006117ef600e83611520565b91506117fa826117b9565b602082019050919050565b6000602082019050818103600083015261181e816117e2565b9050919050565b7f416c6c207369676e61747572657320636f6c6c65637465640000000000000000600082015250565b600061185b601883611520565b915061186682611825565b602082019050919050565b6000602082019050818103600083015261188a8161184e565b9050919050565b7f4e487b7100000000000000000000000000000000000000000000000000000000600052601160045260246000fd5b60006118cb82610ddb565b915060ff82036118de576118dd611891565b5b600182019050919050565b7f456d707479207369676e6572206c697374000000000000000000000000000000600082015250565b600061191f601183611520565b915061192a826118e9565b602082019050919050565b6000602082019050818103600083015261194e81611912565b9050919050565b7f5265636f726420616c7265616479206578697374730000000000000000000000600082015250565b600061198b601583611520565b915061199682611955565b602082019050919050565b600060208201905081810360008301526119ba8161197e565b9050919050565b7f4f6e6c792074686520556e69766572736974792063616e20706572666f726d2060008201527f7468697320616374696f6e000000000000000000000000000000000000000000602082015250565b6000611a1d602b83611520565b9150611a28826119c1565b604082019050919050565b60006020820190508181036000830152611a4c81611a10565b905091905056fea2646970667358221220460768541dd90c5e09e95b7c28fc289a4a47b6c2e7e0e21e634e0a5e97a9c88164736f6c63430008130033",
    "linkReferences": {}
  },
  "methodIdentifiers": {
    "addRecord(string,bytes32,uint256,uint8)": "fda2a151",
    "authorizedSigners(address)": "5d2b6a4e",
    "hasSigned(string,address)": "e9dd9d49",
    "isFullySigned(string)": "3d4c04ec",
    "owner()": "8da5cb5b",
    "records(string)": "541e771d",
    "requiredSignatureCount(uint8)": "318f70a0",
    "requiredSigners(uint8,uint256)": "d3b5c0b8",
    "restoreRecord(string)": "9f8246ce",
    "revokeRecord(string)": "c8468316",
    "setAuthorizedSigner(address,bool)": "3ae718f0",
    "setRequiredSigners(uint8,address[])": "f0783dcd",
    "signRecord(string)": "dc5fdd2d"
  },
  "id": 16
}