{
  "abi": [
    {
      "type": "constructor",
      "inputs": [],
      "stateMutability": "nonpayable"
    },
    {
      "type": "function",
      "name": "addRecord",
      "inputs": [
        {
          "name": "_recordId",
          "type": "string",
          "internalType": "string"
        },
        {
          "name": "_dataHash",
          "type": "bytes32",
          "internalType": "bytes32"
        },
        {
          "name": "_expiration",
          "type": "uint256",
          "internalType": "uint256"
        },
        {
          "name": "_credentialTypeId",
          "type": "bytes32",
          "internalType": "bytes32"
        }
      ],
      "outputs": [],
      "stateMutability": "nonpayable"
    },
    {
      "type": "function",
      "name": "batchSignRecords",
      "inputs": [
        {
          "name": "recordIds",
          "type": "string[]",
          "internalType": "string[]"
        }
      ],
      "outputs": [],
      "stateMutability": "nonpayable"
    },
    {
      "type": "function",
      "name": "credentialTypeSigner",
      "inputs": [
        {
          "name": "",
          "type": "bytes32",
          "internalType": "bytes32"
        },
        {
          "name": "",
          "type": "address",
          "internalType": "address"
        }
      ],
      "outputs": [
        {
          "name": "",
          "type": "bool",
          "internalType": "bool"
        }
      ],
      "stateMutability": "view"
    },
    {
      "type": "function",
      "name": "hasSigned",
      "inputs": [
        {
          "name": "recordId",
          "type": "string",
          "internalType": "string"
        },
        {
          "name": "signer",
          "type": "address",
          "internalType": "address"
        }
      ],
      "outputs": [
        {
          "name": "",
          "type": "bool",
          "internalType": "bool"
        }
      ],
      "stateMutability": "view"
    },
    {
      "type": "function",
      "name": "isFullySigned",
      "inputs": [
        {
          "name": "recordId",
          "type": "string",
          "internalType": "string"
        }
      ],
      "outputs": [
        {
          "name": "",
          "type": "bool",
          "internalType": "bool"
        }
      ],
      "stateMutability": "view"
    },
    {
      "type": "function",
      "name": "owner",
      "inputs": [],
      "outputs": [
        {
          "name": "",
          "type": "address",
          "internalType": "address"
        }
      ],
      "stateMutability": "view"
    },
    {
      "type": "function",
      "name": "records",
      "inputs": [
        {
          "name": "",
          "type": "string",
          "internalType": "string"
        }
      ],
      "outputs": [
        {
          "name": "dataHash",
          "type": "bytes32",
          "internalType": "bytes32"
        },
        {
          "name": "expiration",
          "type": "uint256",
          "internalType": "uint256"
        },
        {
          "name": "isRevoked",
          "type": "bool",
          "internalType": "bool"
        },
        {
          "name": "credentialTypeId",
          "type": "bytes32",
          "internalType": "bytes32"
        },
        {
          "name": "currentSignatures",
          "type": "uint8",
          "internalType": "uint8"
        }
      ],
      "stateMutability": "view"
    },
    {
      "type": "function",
      "name": "requiredSignatureCount",
      "inputs": [
        {
          "name": "",
          "type": "bytes32",
          "internalType": "bytes32"
        }
      ],
      "outputs": [
        {
          "name": "",
          "type": "uint8",
          "internalType": "uint8"
        }
      ],
      "stateMutability": "view"
    },
    {
      "type": "function",
      "name": "restoreRecord",
      "inputs": [
        {
          "name": "_recordId",
          "type": "string",
          "internalType": "string"
        }
      ],
      "outputs": [],
      "stateMutability": "nonpayable"
    },
    {
      "type": "function",
      "name": "revokeRecord",
      "inputs": [
        {
          "name": "_recordId",
          "type": "string",
          "internalType": "string"
        }
      ],
      "outputs": [],
      "stateMutability": "nonpayable"
    },
    {
      "type": "function",
      "name": "setCredentialTypeSigner",
      "inputs": [
        {
          "name": "credentialTypeId",
          "type": "bytes32",
          "internalType": "bytes32"
        },
        {
          "name": "signer",
          "type": "address",
          "internalType": "address"
        },
        {
          "name": "allowed",
          "type": "bool",
          "internalType": "bool"
        }
      ],
      "outputs": [],
      "stateMutability": "nonpayable"
    },
    {
      "type": "function",
      "name": "signRecord",
      "inputs": [
        {
          "name": "recordId",
          "type": "string",
          "internalType": "string"
        }
      ],
      "outputs": [],
      "stateMutability": "nonpayable"
    },
    {
      "type": "event",
      "name": "RecordSigned",
      "inputs": [
        {
          "name": "recordIdRaw",
          "type": "string",
          "indexed": false,
          "internalType": "string"
        },
        {
          "name": "signer",
          "type": "address",
          "indexed": true,
          "internalType": "address"
        },
        {
          "name": "timestamp",
          "type": "uint256",
          "indexed": false,
          "internalType": "uint256"
        }
      ],
      "anonymous": false
    }
  ],
  "bytecode": {
    "object": "0x608060405234801561001057600080fd5b50336000806101000a81548173ffffffffffffffffffffffffffffffffffffffff021916908373ffffffffffffffffffffffffffffffffffffffff16021790555061187d806100606000396000f3fe608060405234801561001057600080fd5b50600436106100b45760003560e01c80638da5cb5b116100715780638da5cb5b146101a15780639f8246ce146101bf578063c8468316146101db578063d27e5e65146101f7578063dc5fdd2d14610227578063e9dd9d4914610243576100b4565b806302ad0259146100b957806332866440146100d557806338c6f81d146101055780633d4c04ec14610121578063541e771d146101515780638ce4121614610185575b600080fd5b6100d360048036038101906100ce9190610c36565b610273565b005b6100ef60048036038101906100ea9190610c89565b6102e8565b6040516100fc9190610cd2565b60405180910390f35b61011f600480360381019061011a9190610d52565b610308565b005b61013b60048036038101906101369190610df5565b6103a3565b6040516101489190610e51565b60405180910390f35b61016b60048036038101906101669190610fad565b610410565b60405161017c95949392919061101e565b60405180910390f35b61019f600480360381019061019a919061109d565b610476565b005b6101a9610549565b6040516101b69190611134565b60405180910390f35b6101d960048036038101906101d49190610df5565b61056d565b005b6101f560048036038101906101f09190610df5565b610625565b005b610211600480360381019061020c919061114f565b6106de565b60405161021e9190610e51565b60405180910390f35b610241600480360381019061023c9190610df5565b61070d565b005b61025d6004803603810190610258919061118f565b61071c565b60405161026a9190610e51565b60405180910390f35b61027b610795565b806001600085815260200190815260200160002060008473ffffffffffffffffffffffffffffffffffffffff1673ffffffffffffffffffffffffffffffffffffffff16815260200190815260200160002060006101000a81548160ff021916908315150217905550505050565b60036020528060005260406000206000915054906101000a900460ff1681565b603282829050111561034f576040517f08c379a00000000000000000000000000000000000000000000000000000000081526004016103469061124c565b60405180910390fd5b60005b8282905081101561039e5761038b8383838181106103735761037261126c565b5b905060200281019061038591906112aa565b33610825565b80806103969061133c565b915050610352565b505050565b600080600284846040516103b89291906113b4565b90815260200160405180910390209050600360008260030154815260200190815260200160002060009054906101000a900460ff1660ff168160040160009054906101000a900460ff1660ff16101591505092915050565b6002818051602081018201805184825260208301602085012081835280955050505050506000915090508060000154908060010154908060020160009054906101000a900460ff16908060030154908060040160009054906101000a900460ff16905085565b61047e610795565b6000600286866040516104929291906113b4565b908152602001604051809103902090506000801b8160000154146104eb576040517f08c379a00000000000000000000000000000000000000000000000000000000081526004016104e290611419565b60405180910390fd5b83816000018190555082816001018190555060008160020160006101000a81548160ff02191690831515021790555060008160040160006101000a81548160ff021916908360ff160217905550818160030181905550505050505050565b60008054906101000a900473ffffffffffffffffffffffffffffffffffffffff1681565b610575610795565b600282826040516105879291906113b4565b908152602001604051809103902060020160009054906101000a900460ff166105e5576040517f08c379a00000000000000000000000000000000000000000000000000000000081526004016105dc90611485565b60405180910390fd5b6000600283836040516105f99291906113b4565b908152602001604051809103902060020160006101000a81548160ff0219169083151502179055505050565b61062d610795565b6002828260405161063f9291906113b4565b908152602001604051809103902060020160009054906101000a900460ff161561069e576040517f08c379a0000000000000000000000000000000000000000000000000000000008152600401610695906114f1565b60405180910390fd5b6001600283836040516106b29291906113b4565b908152602001604051809103902060020160006101000a81548160ff0219169083151502179055505050565b60016020528160005260406000206020528060005260406000206000915091509054906101000a900460ff1681565b610718828233610825565b5050565b6000600284846040516107309291906113b4565b908152602001604051809103902060050160008373ffffffffffffffffffffffffffffffffffffffff1673ffffffffffffffffffffffffffffffffffffffff16815260200190815260200160002060009054906101000a900460ff1690509392505050565b60008054906101000a900473ffffffffffffffffffffffffffffffffffffffff1673ffffffffffffffffffffffffffffffffffffffff163373ffffffffffffffffffffffffffffffffffffffff1614610823576040517f08c379a000000000000000000000000000000000000000000000000000000000815260040161081a90611583565b60405180910390fd5b565b6000600284846040516108399291906113b4565b908152602001604051809103902090506000801b816000015403610892576040517f08c379a0000000000000000000000000000000000000000000000000000000008152600401610889906115ef565b60405180910390fd5b8060020160009054906101000a900460ff16156108e4576040517f08c379a00000000000000000000000000000000000000000000000000000000081526004016108db9061165b565b60405180910390fd5b6000816001015414806108fb575080600101544211155b61093a576040517f08c379a0000000000000000000000000000000000000000000000000000000008152600401610931906116c7565b60405180910390fd5b600160008260030154815260200190815260200160002060008373ffffffffffffffffffffffffffffffffffffffff1673ffffffffffffffffffffffffffffffffffffffff16815260200190815260200160002060009054906101000a900460ff166109db576040517f08c379a00000000000000000000000000000000000000000000000000000000081526004016109d290611733565b60405180910390fd5b8060050160008373ffffffffffffffffffffffffffffffffffffffff1673ffffffffffffffffffffffffffffffffffffffff16815260200190815260200160002060009054906101000a900460ff1615610a6a576040517f08c379a0000000000000000000000000000000000000000000000000000000008152600401610a619061179f565b60405180910390fd5b60018160050160008473ffffffffffffffffffffffffffffffffffffffff1673ffffffffffffffffffffffffffffffffffffffff16815260200190815260200160002060006101000a81548160ff02191690831515021790555080600401600081819054906101000a900460ff1680929190610ae5906117bf565b91906101000a81548160ff021916908360ff160217905550508173ffffffffffffffffffffffffffffffffffffffff167f1c456bf6a5b08f982b32ea5a8aafa22dd539e7f291a0e7693ec5b273ad6e97fc858542604051610b4893929190611815565b60405180910390a250505050565b6000604051905090565b600080fd5b600080fd5b6000819050919050565b610b7d81610b6a565b8114610b8857600080fd5b50565b600081359050610b9a81610b74565b92915050565b600073ffffffffffffffffffffffffffffffffffffffff82169050919050565b6000610bcb82610ba0565b9050919050565b610bdb81610bc0565b8114610be657600080fd5b50565b600081359050610bf881610bd2565b92915050565b60008115159050919050565b610c1381610bfe565b8114610c1e57600080fd5b50565b600081359050610c3081610c0a565b92915050565b600080600060608486031215610c4f57610c4e610b60565b5b6000610c5d86828701610b8b565b9350506020610c6e86828701610be9565b9250506040610c7f86828701610c21565b9150509250925092565b600060208284031215610c9f57610c9e610b60565b5b6000610cad84828501610b8b565b91505092915050565b600060ff82169050919050565b610ccc81610cb6565b82525050565b6000602082019050610ce76000830184610cc3565b92915050565b600080fd5b600080fd5b600080fd5b60008083601f840112610d1257610d11610ced565b5b8235905067ffffffffffffffff811115610d2f57610d2e610cf2565b5b602083019150836020820283011115610d4b57610d4a610cf7565b5b9250929050565b60008060208385031215610d6957610d68610b60565b5b600083013567ffffffffffffffff811115610d8757610d86610b65565b5b610d9385828601610cfc565b92509250509250929050565b60008083601f840112610db557610db4610ced565b5b8235905067ffffffffffffffff811115610dd257610dd1610cf2565b5b602083019150836001820283011115610dee57610ded610cf7565b5b9250929050565b60008060208385031215610e0c57610e0b610b60565b5b600083013567ffffffffffffffff811115610e2a57610e29610b65565b5b610e3685828601610d9f565b92509250509250929050565b610e4b81610bfe565b82525050565b6000602082019050610e666000830184610e42565b92915050565b600080fd5b6000601f19601f8301169050919050565b7f4e487b7100000000000000000000000000000000000000000000000000000000600052604160045260246000fd5b610eba82610e71565b810181811067ffffffffffffffff82111715610ed957610ed8610e82565b5b80604052505050565b6000610eec610b56565b9050610ef88282610eb1565b919050565b600067ffffffffffffffff821115610f1857610f17610e82565b5b610f2182610e71565b9050602081019050919050565b82818337600083830152505050565b6000610f50610f4b84610efd565b610ee2565b905082815260208101848484011115610f6c57610f6b610e6c565b5b610f77848285610f2e565b509392505050565b600082601f830112610f9457610f93610ced565b5b8135610fa4848260208601610f3d565b91505092915050565b600060208284031215610fc357610fc2610b60565b5b600082013567ffffffffffffffff811115610fe157610fe0610b65565b5b610fed84828501610f7f565b91505092915050565b610fff81610b6a565b82525050565b6000819050919050565b61101881611005565b82525050565b600060a0820190506110336000830188610ff6565b611040602083018761100f565b61104d6040830186610e42565b61105a6060830185610ff6565b6110676080830184610cc3565b9695505050505050565b61107a81611005565b811461108557600080fd5b50565b60008135905061109781611071565b92915050565b6000806000806000608086880312156110b9576110b8610b60565b5b600086013567ffffffffffffffff8111156110d7576110d6610b65565b5b6110e388828901610d9f565b955095505060206110f688828901610b8b565b935050604061110788828901611088565b925050606061111888828901610b8b565b9150509295509295909350565b61112e81610bc0565b82525050565b60006020820190506111496000830184611125565b92915050565b6000806040838503121561116657611165610b60565b5b600061117485828601610b8b565b925050602061118585828601610be9565b9150509250929050565b6000806000604084860312156111a8576111a7610b60565b5b600084013567ffffffffffffffff8111156111c6576111c5610b65565b5b6111d286828701610d9f565b935093505060206111e586828701610be9565b9150509250925092565b600082825260208201905092915050565b7f426174636820746f6f206c6172676520286d6178203530290000000000000000600082015250565b60006112366018836111ef565b915061124182611200565b602082019050919050565b6000602082019050818103600083015261126581611229565b9050919050565b7f4e487b7100000000000000000000000000000000000000000000000000000000600052603260045260246000fd5b600080fd5b600080fd5b600080fd5b600080833560016020038436030381126112c7576112c661129b565b5b80840192508235915067ffffffffffffffff8211156112e9576112e86112a0565b5b602083019250600182023603831315611305576113046112a5565b5b509250929050565b7f4e487b7100000000000000000000000000000000000000000000000000000000600052601160045260246000fd5b600061134782611005565b91507fffffffffffffffffffffffffffffffffffffffffffffffffffffffffffffffff82036113795761137861130d565b5b600182019050919050565b600081905092915050565b600061139b8385611384565b93506113a8838584610f2e565b82840190509392505050565b60006113c182848661138f565b91508190509392505050565b7f5265636f726420616c7265616479206578697374730000000000000000000000600082015250565b60006114036015836111ef565b915061140e826113cd565b602082019050919050565b60006020820190508181036000830152611432816113f6565b9050919050565b7f5265636f7264206973206e6f74207265766f6b65640000000000000000000000600082015250565b600061146f6015836111ef565b915061147a82611439565b602082019050919050565b6000602082019050818103600083015261149e81611462565b9050919050565b7f5265636f726420697320616c7265616479207265766f6b656400000000000000600082015250565b60006114db6019836111ef565b91506114e6826114a5565b602082019050919050565b6000602082019050818103600083015261150a816114ce565b9050919050565b7f4f6e6c792074686520556e69766572736974792063616e20706572666f726d2060008201527f7468697320616374696f6e000000000000000000000000000000000000000000602082015250565b600061156d602b836111ef565b915061157882611511565b604082019050919050565b6000602082019050818103600083015261159c81611560565b9050919050565b7f5265636f726420646f6573206e6f742065786973740000000000000000000000600082015250565b60006115d96015836111ef565b91506115e4826115a3565b602082019050919050565b60006020820190508181036000830152611608816115cc565b9050919050565b7f5265636f7264207265766f6b6564000000000000000000000000000000000000600082015250565b6000611645600e836111ef565b91506116508261160f565b602082019050919050565b6000602082019050818103600083015261167481611638565b9050919050565b7f5265636f72642065787069726564000000000000000000000000000000000000600082015250565b60006116b1600e836111ef565b91506116bc8261167b565b602082019050919050565b600060208201905081810360008301526116e0816116a4565b9050919050565b7f4e6f7420617574686f72697a6564205369676e65720000000000000000000000600082015250565b600061171d6015836111ef565b9150611728826116e7565b602082019050919050565b6000602082019050818103600083015261174c81611710565b9050919050565b7f416c7265616479207369676e6564210000000000000000000000000000000000600082015250565b6000611789600f836111ef565b915061179482611753565b602082019050919050565b600060208201905081810360008301526117b88161177c565b9050919050565b60006117ca82610cb6565b915060ff82036117dd576117dc61130d565b5b600182019050919050565b60006117f483856111ef565b9350611801838584610f2e565b61180a83610e71565b840190509392505050565b600060408201905081810360008301526118308185876117e8565b905061183f602083018461100f565b94935050505056fea264697066735822122094fcf34f56d3ce56a605d9f6d897b5e7b3522f1fd8a8165665ca2f018e4b838c64736f6c63430008130033",
    "linkReferences": {}
  },
  "methodIdentifiers": {
    "addRecord(string,bytes32,uint256,bytes32)": "8ce41216",
    "batchSignRecords(string[])": "38c6f81d",
    "credentialTypeSigner(bytes32,address)": "d27e5e65",
    "hasSigned(string,address)": "e9dd9d49",
    "isFullySigned(string)": "3d4c04ec",
    "owner()": "8da5cb5b",
    "records(string)": "541e771d",
    "requiredSignatureCount(bytes32)": "32866440",
    "restoreRecord(string)": "9f8246ce",
    "revokeRecord(string)": "c8468316",
    "setCredentialTypeSigner(bytes32,address,bool)": "02ad0259",
    "signRecord(string)": "dc5fdd2d"
  },
  "id": 16
}