{
  "abi": [
    {
      "type": "constructor",
      "inputs": [],
      "stateMutability": "nonpayable"
    },
    {
      "type": "function",
      "name": "addRecord",
      "inputs": [
        {
          "name": "_recordId",
          "type": "string",
          "internalType": "string"
        },
        {
          "name": "_dataHash",
          "type": "bytes32",
          "internalType": "bytes32"
        },
        {
          "name": "_expiration",
          "type": "uint256",
          "internalType": "uint256"
        },
        {
          "name": "_credentialTypeId",
          "type": "bytes32",
          "internalType": "bytes32"
        }
      ],
      "outputs": [],
      "stateMutability": "nonpayable"
    },
    {
      "type": "function",
      "name": "authorizedSigners",
      "inputs": [
        {
          "name": "",
          "type": "address",
          "internalType": "address"
        }
      ],
      "outputs": [
        {
          "name": "",
          "type": "bool",
          "internalType": "bool"
        }
      ],
      "stateMutability": "view"
    },
    {
      "type": "function",
      "name": "hasSigned",
      "inputs": [
        {
          "name": "recordId",
          "type": "string",
          "internalType": "string"
        },
        {
          "name": "signer",
          "type": "address",
          "internalType": "address"
        }
      ],
      "outputs": [
        {
          "name": "",
          "type": "bool",
          "internalType": "bool"
        }
      ],
      "stateMutability": "view"
    },
    {
      "type": "function",
      "name": "isFullySigned",
      "inputs": [
        {
          "name": "recordId",
          "type": "string",
          "internalType": "string"
        }
      ],
      "outputs": [
        {
          "name": "",
          "type": "bool",
          "internalType": "bool"
        }
      ],
      "stateMutability": "view"
    },
    {
      "type": "function",
      "name": "owner",
      "inputs": [],
      "outputs": [
        {
          "name": "",
          "type": "address",
          "internalType": "address"
        }
      ],
      "stateMutability": "view"
    },
    {
      "type": "function",
      "name": "records",
      "inputs": [
        {
          "name": "",
          "type": "string",
          "internalType": "string"
        }
      ],
      "outputs": [
        {
          "name": "dataHash",
          "type": "bytes32",
          "internalType": "bytes32"
        },
        {
          "name": "expiration",
          "type": "uint256",
          "internalType": "uint256"
        },
        {
          "name": "isRevoked",
          "type": "bool",
          "internalType": "bool"
        },
        {
          "name": "credentialTypeId",
          "type": "bytes32",
          "internalType": "bytes32"
        },
        {
          "name": "currentSignatures",
          "type": "uint8",
          "internalType": "uint8"
        }
      ],
      "stateMutability": "view"
    },
    {
      "type": "function",
      "name": "requiredSignatureCount",
      "inputs": [
        {
          "name": "",
          "type": "bytes32",
          "internalType": "bytes32"
        }
      ],
      "outputs": [
        {
          "name": "",
          "type": "uint8",
          "internalType": "uint8"
        }
      ],
      "stateMutability": "view"
    },
    {
      "type": "function",
      "name": "requiredSigners",
      "inputs": [
        {
          "name": "",
          "type": "bytes32",
          "internalType": "bytes32"
        },
        {
          "name": "",
          "type": "uint256",
          "internalType": "uint256"
        }
      ],
      "outputs": [
        {
          "name": "",
          "type": "address",
          "internalType": "address"
        }
      ],
      "stateMutability": "view"
    },
    {
      "type": "function",
      "name": "restoreRecord",
      "inputs": [
        {
          "name": "_recordId",
          "type": "string",
          "internalType": "string"
        }
      ],
      "outputs": [],
      "stateMutability": "nonpayable"
    },
    {
      "type": "function",
      "name": "revokeRecord",
      "inputs": [
        {
          "name": "_recordId",
          "type": "string",
          "internalType": "string"
        }
      ],
      "outputs": [],
      "stateMutability": "nonpayable"
    },
    {
      "type": "function",
      "name": "setAuthorizedSigner",
      "inputs": [
        {
          "name": "signer",
          "type": "address",
          "internalType": "address"
        },
        {
          "name": "allowed",
          "type": "bool",
          "internalType": "bool"
        }
      ],
      "outputs": [],
      "stateMutability": "nonpayable"
    },
    {
      "type": "function",
      "name": "setRequiredSigners",
      "inputs": [
        {
          "name": "_credentialTypeId",
          "type": "bytes32",
          "internalType": "bytes32"
        },
        {
          "name": "signers",
          "type": "address[]",
          "internalType": "address[]"
        }
      ],
      "outputs": [],
      "stateMutability": "nonpayable"
    },
    {
      "type": "function",
      "name": "signRecord",
      "inputs": [
        {
          "name": "recordId",
          "type": "string",
          "internalType": "string"
        }
      ],
      "outputs": [],
      "stateMutability": "nonpayable"
    },
    {
      "type": "event",
      "name": "RecordSigned",
      "inputs": [
        {
          "name": "recordId",
          "type": "string",
          "indexed": true,
          "internalType": "string"
        },
        {
          "name": "signer",
          "type": "address",
          "indexed": true,
          "internalType": "address"
        },
        {
          "name": "timestamp",
          "type": "uint256",
          "indexed": false,
          "internalType": "uint256"
        }
      ],
      "anonymous": false
    }
  ],
  "bytecode": {
    "object": "0x608060405234801561001057600080fd5b50336000806101000a81548173ffffffffffffffffffffffffffffffffffffffff021916908373ffffffffffffffffffffffffffffffffffffffff1602179055506118ab806100606000396000f3fe608060405234801561001057600080fd5b50600436106100cf5760003560e01c80635d2b6a4e1161008c5780639f8246ce116100665780639f8246ce1461023a578063c846831614610256578063dc5fdd2d14610272578063e9dd9d491461028e576100cf565b80635d2b6a4e146101d05780638ce41216146102005780638da5cb5b1461021c576100cf565b806332866440146100d457806337a37266146101045780633ae718f0146101345780633d4c04ec1461015057806341775d4814610180578063541e771d1461019c575b600080fd5b6100ee60048036038101906100e99190610cce565b6102be565b6040516100fb9190610d17565b60405180910390f35b61011e60048036038101906101199190610d68565b6102de565b60405161012b9190610de9565b60405180910390f35b61014e60048036038101906101499190610e68565b61032c565b005b61016a60048036038101906101659190610f0d565b61038f565b6040516101779190610f69565b60405180910390f35b61019a60048036038101906101959190610fda565b6103fc565b005b6101b660048036038101906101b1919061117b565b6104a1565b6040516101c79594939291906111e2565b60405180910390f35b6101ea60048036038101906101e59190611235565b610507565b6040516101f79190610f69565b60405180910390f35b61021a60048036038101906102159190611262565b610527565b005b6102246105fa565b6040516102319190610de9565b60405180910390f35b610254600480360381019061024f9190610f0d565b61061e565b005b610270600480360381019061026b9190610f0d565b6106d6565b005b61028c60048036038101906102879190610f0d565b61078f565b005b6102a860048036038101906102a391906112ea565b610abe565b6040516102b59190610f69565b60405180910390f35b60036020528060005260406000206000915054906101000a900460ff1681565b600460205281600052604060002081815481106102fa57600080fd5b906000526020600020016000915091509054906101000a900473ffffffffffffffffffffffffffffffffffffffff1681565b610334610b37565b80600160008473ffffffffffffffffffffffffffffffffffffffff1673ffffffffffffffffffffffffffffffffffffffff16815260200190815260200160002060006101000a81548160ff0219169083151502179055505050565b600080600284846040516103a492919061137a565b90815260200160405180910390209050600360008260030154815260200190815260200160002060009054906101000a900460ff1660ff168160040160009054906101000a900460ff1660ff16101591505092915050565b610404610b37565b6000828290501161044a576040517f08c379a0000000000000000000000000000000000000000000000000000000008152600401610441906113f0565b60405180910390fd5b818160046000868152602001908152602001600020919061046c929190610bc7565b50818190506003600085815260200190815260200160002060006101000a81548160ff021916908360ff160217905550505050565b6002818051602081018201805184825260208301602085012081835280955050505050506000915090508060000154908060010154908060020160009054906101000a900460ff16908060030154908060040160009054906101000a900460ff16905085565b60016020528060005260406000206000915054906101000a900460ff1681565b61052f610b37565b60006002868660405161054392919061137a565b908152602001604051809103902090506000801b81600001541461059c576040517f08c379a00000000000000000000000000000000000000000000000000000000081526004016105939061145c565b60405180910390fd5b83816000018190555082816001018190555060008160020160006101000a81548160ff02191690831515021790555060008160040160006101000a81548160ff021916908360ff160217905550818160030181905550505050505050565b60008054906101000a900473ffffffffffffffffffffffffffffffffffffffff1681565b610626610b37565b6002828260405161063892919061137a565b908152602001604051809103902060020160009054906101000a900460ff16610696576040517f08c379a000000000000000000000000000000000000000000000000000000000815260040161068d906114c8565b60405180910390fd5b6000600283836040516106aa92919061137a565b908152602001604051809103902060020160006101000a81548160ff0219169083151502179055505050565b6106de610b37565b600282826040516106f092919061137a565b908152602001604051809103902060020160009054906101000a900460ff161561074f576040517f08c379a000000000000000000000000000000000000000000000000000000000815260040161074690611534565b60405180910390fd5b60016002838360405161076392919061137a565b908152602001604051809103902060020160006101000a81548160ff0219169083151502179055505050565b6000600283836040516107a392919061137a565b908152602001604051809103902090506000801b8160000154036107fc576040517f08c379a00000000000000000000000000000000000000000000000000000000081526004016107f3906115a0565b60405180910390fd5b8060020160009054906101000a900460ff161561084e576040517f08c379a00000000000000000000000000000000000000000000000000000000081526004016108459061160c565b60405180910390fd5b600081600101541480610865575080600101544211155b6108a4576040517f08c379a000000000000000000000000000000000000000000000000000000000815260040161089b90611678565b60405180910390fd5b600160003373ffffffffffffffffffffffffffffffffffffffff1673ffffffffffffffffffffffffffffffffffffffff16815260200190815260200160002060009054906101000a900460ff16610930576040517f08c379a0000000000000000000000000000000000000000000000000000000008152600401610927906116e4565b60405180910390fd5b8060050160003373ffffffffffffffffffffffffffffffffffffffff1673ffffffffffffffffffffffffffffffffffffffff16815260200190815260200160002060009054906101000a900460ff16156109bf576040517f08c379a00000000000000000000000000000000000000000000000000000000081526004016109b690611750565b60405180910390fd5b60018160050160003373ffffffffffffffffffffffffffffffffffffffff1673ffffffffffffffffffffffffffffffffffffffff16815260200190815260200160002060006101000a81548160ff02191690831515021790555080600401600081819054906101000a900460ff1680929190610a3a9061179f565b91906101000a81548160ff021916908360ff160217905550503373ffffffffffffffffffffffffffffffffffffffff168383604051610a7a92919061137a565b60405180910390207f1c456bf6a5b08f982b32ea5a8aafa22dd539e7f291a0e7693ec5b273ad6e97fc42604051610ab191906117c8565b60405180910390a3505050565b600060028484604051610ad292919061137a565b908152602001604051809103902060050160008373ffffffffffffffffffffffffffffffffffffffff1673ffffffffffffffffffffffffffffffffffffffff16815260200190815260200160002060009054906101000a900460ff1690509392505050565b60008054906101000a900473ffffffffffffffffffffffffffffffffffffffff1673ffffffffffffffffffffffffffffffffffffffff163373ffffffffffffffffffffffffffffffffffffffff1614610bc5576040517f08c379a0000000000000000000000000000000000000000000000000000000008152600401610bbc90611855565b60405180910390fd5b565b828054828255906000526020600020908101928215610c56579160200282015b82811115610c5557823573ffffffffffffffffffffffffffffffffffffffff168260006101000a81548173ffffffffffffffffffffffffffffffffffffffff021916908373ffffffffffffffffffffffffffffffffffffffff16021790555091602001919060010190610be7565b5b509050610c639190610c67565b5090565b5b80821115610c80576000816000905550600101610c68565b5090565b6000604051905090565b600080fd5b600080fd5b6000819050919050565b610cab81610c98565b8114610cb657600080fd5b50565b600081359050610cc881610ca2565b92915050565b600060208284031215610ce457610ce3610c8e565b5b6000610cf284828501610cb9565b91505092915050565b600060ff82169050919050565b610d1181610cfb565b82525050565b6000602082019050610d2c6000830184610d08565b92915050565b6000819050919050565b610d4581610d32565b8114610d5057600080fd5b50565b600081359050610d6281610d3c565b92915050565b60008060408385031215610d7f57610d7e610c8e565b5b6000610d8d85828601610cb9565b9250506020610d9e85828601610d53565b9150509250929050565b600073ffffffffffffffffffffffffffffffffffffffff82169050919050565b6000610dd382610da8565b9050919050565b610de381610dc8565b82525050565b6000602082019050610dfe6000830184610dda565b92915050565b610e0d81610dc8565b8114610e1857600080fd5b50565b600081359050610e2a81610e04565b92915050565b60008115159050919050565b610e4581610e30565b8114610e5057600080fd5b50565b600081359050610e6281610e3c565b92915050565b60008060408385031215610e7f57610e7e610c8e565b5b6000610e8d85828601610e1b565b9250506020610e9e85828601610e53565b9150509250929050565b600080fd5b600080fd5b600080fd5b60008083601f840112610ecd57610ecc610ea8565b5b8235905067ffffffffffffffff811115610eea57610ee9610ead565b5b602083019150836001820283011115610f0657610f05610eb2565b5b9250929050565b60008060208385031215610f2457610f23610c8e565b5b600083013567ffffffffffffffff811115610f4257610f41610c93565b5b610f4e85828601610eb7565b92509250509250929050565b610f6381610e30565b82525050565b6000602082019050610f7e6000830184610f5a565b92915050565b60008083601f840112610f9a57610f99610ea8565b5b8235905067ffffffffffffffff811115610fb757610fb6610ead565b5b602083019150836020820283011115610fd357610fd2610eb2565b5b9250929050565b600080600060408486031215610ff357610ff2610c8e565b5b600061100186828701610cb9565b935050602084013567ffffffffffffffff81111561102257611021610c93565b5b61102e86828701610f84565b92509250509250925092565b600080fd5b6000601f19601f8301169050919050565b7f4e487b7100000000000000000000000000000000000000000000000000000000600052604160045260246000fd5b6110888261103f565b810181811067ffffffffffffffff821117156110a7576110a6611050565b5b80604052505050565b60006110ba610c84565b90506110c6828261107f565b919050565b600067ffffffffffffffff8211156110e6576110e5611050565b5b6110ef8261103f565b9050602081019050919050565b82818337600083830152505050565b600061111e611119846110cb565b6110b0565b90508281526020810184848401111561113a5761113961103a565b5b6111458482856110fc565b509392505050565b600082601f83011261116257611161610ea8565b5b813561117284826020860161110b565b91505092915050565b60006020828403121561119157611190610c8e565b5b600082013567ffffffffffffffff8111156111af576111ae610c93565b5b6111bb8482850161114d565b91505092915050565b6111cd81610c98565b82525050565b6111dc81610d32565b82525050565b600060a0820190506111f760008301886111c4565b61120460208301876111d3565b6112116040830186610f5a565b61121e60608301856111c4565b61122b6080830184610d08565b9695505050505050565b60006020828403121561124b5761124a610c8e565b5b600061125984828501610e1b565b91505092915050565b60008060008060006080868803121561127e5761127d610c8e565b5b600086013567ffffffffffffffff81111561129c5761129b610c93565b5b6112a888828901610eb7565b955095505060206112bb88828901610cb9565b93505060406112cc88828901610d53565b92505060606112dd88828901610cb9565b9150509295509295909350565b60008060006040848603121561130357611302610c8e565b5b600084013567ffffffffffffffff81111561132157611320610c93565b5b61132d86828701610eb7565b9350935050602061134086828701610e1b565b9150509250925092565b600081905092915050565b6000611361838561134a565b935061136e8385846110fc565b82840190509392505050565b6000611387828486611355565b91508190509392505050565b600082825260208201905092915050565b7f456d707479207369676e6572206c697374000000000000000000000000000000600082015250565b60006113da601183611393565b91506113e5826113a4565b602082019050919050565b60006020820190508181036000830152611409816113cd565b9050919050565b7f5265636f726420616c7265616479206578697374730000000000000000000000600082015250565b6000611446601583611393565b915061145182611410565b602082019050919050565b6000602082019050818103600083015261147581611439565b9050919050565b7f5265636f7264206973206e6f74207265766f6b65640000000000000000000000600082015250565b60006114b2601583611393565b91506114bd8261147c565b602082019050919050565b600060208201905081810360008301526114e1816114a5565b9050919050565b7f5265636f726420697320616c7265616479207265766f6b656400000000000000600082015250565b600061151e601983611393565b9150611529826114e8565b602082019050919050565b6000602082019050818103600083015261154d81611511565b9050919050565b7f5265636f726420646f6573206e6f742065786973740000000000000000000000600082015250565b600061158a601583611393565b915061159582611554565b602082019050919050565b600060208201905081810360008301526115b98161157d565b9050919050565b7f5265636f7264207265766f6b6564000000000000000000000000000000000000600082015250565b60006115f6600e83611393565b9150611601826115c0565b602082019050919050565b60006020820190508181036000830152611625816115e9565b9050919050565b7f5265636f72642065787069726564000000000000000000000000000000000000600082015250565b6000611662600e83611393565b915061166d8261162c565b602082019050919050565b6000602082019050818103600083015261169181611655565b9050919050565b7f4e6f7420617574686f72697a6564000000000000000000000000000000000000600082015250565b60006116ce600e83611393565b91506116d982611698565b602082019050919050565b600060208201905081810360008301526116fd816116c1565b9050919050565b7f416c7265616479207369676e6564000000000000000000000000000000000000600082015250565b600061173a600e83611393565b915061174582611704565b602082019050919050565b600060208201905081810360008301526117698161172d565b9050919050565b7f4e487b7100000000000000000000000000000000000000000000000000000000600052601160045260246000fd5b60006117aa82610cfb565b915060ff82036117bd576117bc611770565b5b600182019050919050565b60006020820190506117dd60008301846111d3565b92915050565b7f4f6e6c792074686520556e69766572736974792063616e20706572666f726d2060008201527f7468697320616374696f6e000000000000000000000000000000000000000000602082015250565b600061183f602b83611393565b915061184a826117e3565b604082019050919050565b6000602082019050818103600083015261186e81611832565b905091905056fea264697066735822122039fda6a84888308c7a67a17494191406a929066c5e640c5f6efd4d492e1d9c6b64736f6c63430008130033",
    "linkReferences": {}
  },
  "methodIdentifiers": {
    "addRecord(string,bytes32,uint256,bytes32)": "8ce41216",
    "authorizedSigners(address)": "5d2b6a4e",
    "hasSigned(string,address)": "e9dd9d49",
    "isFullySigned(string)": "3d4c04ec",
    "owner()": "8da5cb5b",
    "records(string)": "541e771d",
    "requiredSignatureCount(bytes32)": "32866440",
    "requiredSigners(bytes32,uint256)": "37a37266",
    "restoreRecord(string)": "9f8246ce",
    "revokeRecord(string)": "c8468316",
    "setAuthorizedSigner(address,bool)": "3ae718f0",
    "setRequiredSigners(bytes32,address[])": "41775d48",
    "signRecord(string)": "dc5fdd2d"
  },
  "id": 16
}