{
  "abi": [
    {
      "type": "constructor",
      "inputs": [],
      "stateMutability": "nonpayable"
    },
    {
      "type": "function",
      "name": "addRecord",
      "inputs": [
        {
          "name": "_recordId",
          "type": "string",
          "internalType": "string"
        },
        {
          "name": "_dataHash",
          "type": "bytes32",
          "internalType": "bytes32"
        },
        {
          "name": "_expiration",
          "type": "uint256",
          "internalType": "uint256"
        },
        {
          "name": "_credentialTypeId",
          "type": "bytes32",
          "internalType": "bytes32"
        }
      ],
      "outputs": [],
      "stateMutability": "nonpayable"
    },
    {
      "type": "function",
      "name": "credentialTypeSigner",
      "inputs": [
        {
          "name": "",
          "type": "bytes32",
          "internalType": "bytes32"
        },
        {
          "name": "",
          "type": "address",
          "internalType": "address"
        }
      ],
      "outputs": [
        {
          "name": "",
          "type": "bool",
          "internalType": "bool"
        }
      ],
      "stateMutability": "view"
    },
    {
      "type": "function",
      "name": "hasSigned",
      "inputs": [
        {
          "name": "recordId",
          "type": "string",
          "internalType": "string"
        },
        {
          "name": "signer",
          "type": "address",
          "internalType": "address"
        }
      ],
      "outputs": [
        {
          "name": "",
          "type": "bool",
          "internalType": "bool"
        }
      ],
      "stateMutability": "view"
    },
    {
      "type": "function",
      "name": "isFullySigned",
      "inputs": [
        {
          "name": "recordId",
          "type": "string",
          "internalType": "string"
        }
      ],
      "outputs": [
        {
          "name": "",
          "type": "bool",
          "internalType": "bool"
        }
      ],
      "stateMutability": "view"
    },
    {
      "type": "function",
      "name": "owner",
      "inputs": [],
      "outputs": [
        {
          "name": "",
          "type": "address",
          "internalType": "address"
        }
      ],
      "stateMutability": "view"
    },
    {
      "type": "function",
      "name": "records",
      "inputs": [
        {
          "name": "",
          "type": "string",
          "internalType": "string"
        }
      ],
      "outputs": [
        {
          "name": "dataHash",
          "type": "bytes32",
          "internalType": "bytes32"
        },
        {
          "name": "expiration",
          "type": "uint256",
          "internalType": "uint256"
        },
        {
          "name": "isRevoked",
          "type": "bool",
          "internalType": "bool"
        },
        {
          "name": "credentialTypeId",
          "type": "bytes32",
          "internalType": "bytes32"
        },
        {
          "name": "currentSignatures",
          "type": "uint8",
          "internalType": "uint8"
        }
      ],
      "stateMutability": "view"
    },
    {
      "type": "function",
      "name": "requiredSignatureCount",
      "inputs": [
        {
          "name": "",
          "type": "bytes32",
          "internalType": "bytes32"
        }
      ],
      "outputs": [
        {
          "name": "",
          "type": "uint8",
          "internalType": "uint8"
        }
      ],
      "stateMutability": "view"
    },
    {
      "type": "function",
      "name": "restoreRecord",
      "inputs": [
        {
          "name": "_recordId",
          "type": "string",
          "internalType": "string"
        }
      ],
      "outputs": [],
      "stateMutability": "nonpayable"
    },
    {
      "type": "function",
      "name": "revokeRecord",
      "inputs": [
        {
          "name": "_recordId",
          "type": "string",
          "internalType": "string"
        }
      ],
      "outputs": [],
      "stateMutability": "nonpayable"
    },
    {
      "type": "function",
      "name": "setCredentialTypeSigner",
      "inputs": [
        {
          "name": "credentialTypeId",
          "type": "bytes32",
          "internalType": "bytes32"
        },
        {
          "name": "signer",
          "type": "address",
          "internalType": "address"
        },
        {
          "name": "allowed",
          "type": "bool",
          "internalType": "bool"
        }
      ],
      "outputs": [],
      "stateMutability": "nonpayable"
    },
    {
      "type": "function",
      "name": "signRecord",
      "inputs": [
        {
          "name": "recordId",
          "type": "string",
          "internalType": "string"
        }
      ],
      "outputs": [],
      "stateMutability": "nonpayable"
    },
    {
      "type": "event",
      "name": "RecordSigned",
      "inputs": [
        {
          "name": "recordIdRaw",
          "type": "string",
          "indexed": false,
          "internalType": "string"
        },
        {
          "name": "signer",
          "type": "address",
          "indexed": true,
          "internalType": "address"
        },
        {
          "name": "timestamp",
          "type": "uint256",
          "indexed": false,
          "internalType": "uint256"
        }
      ],
      "anonymous": false
    }
  ],
  "bytecode": {
    "object": "0x608060405234801561001057600080fd5b50336000806101000a81548173ffffffffffffffffffffffffffffffffffffffff021916908373ffffffffffffffffffffffffffffffffffffffff1602179055506115b3806100606000396000f3fe608060405234801561001057600080fd5b50600436106100a95760003560e01c80638da5cb5b116100715780638da5cb5b1461017a5780639f8246ce14610198578063c8468316146101b4578063d27e5e65146101d0578063dc5fdd2d14610200578063e9dd9d491461021c576100a9565b806302ad0259146100ae57806332866440146100ca5780633d4c04ec146100fa578063541e771d1461012a5780638ce412161461015e575b600080fd5b6100c860048036038101906100c39190610b64565b61024c565b005b6100e460048036038101906100df9190610bb7565b6102c1565b6040516100f19190610c00565b60405180910390f35b610114600480360381019061010f9190610c80565b6102e1565b6040516101219190610cdc565b60405180910390f35b610144600480360381019061013f9190610e38565b61034e565b604051610155959493929190610ea9565b60405180910390f35b61017860048036038101906101739190610f28565b6103b4565b005b610182610487565b60405161018f9190610fbf565b60405180910390f35b6101b260048036038101906101ad9190610c80565b6104ab565b005b6101ce60048036038101906101c99190610c80565b610563565b005b6101ea60048036038101906101e59190610fda565b61061c565b6040516101f79190610cdc565b60405180910390f35b61021a60048036038101906102159190610c80565b61064b565b005b6102366004803603810190610231919061101a565b61097b565b6040516102439190610cdc565b60405180910390f35b6102546109f4565b806001600085815260200190815260200160002060008473ffffffffffffffffffffffffffffffffffffffff1673ffffffffffffffffffffffffffffffffffffffff16815260200190815260200160002060006101000a81548160ff021916908315150217905550505050565b60036020528060005260406000206000915054906101000a900460ff1681565b600080600284846040516102f69291906110aa565b90815260200160405180910390209050600360008260030154815260200190815260200160002060009054906101000a900460ff1660ff168160040160009054906101000a900460ff1660ff16101591505092915050565b6002818051602081018201805184825260208301602085012081835280955050505050506000915090508060000154908060010154908060020160009054906101000a900460ff16908060030154908060040160009054906101000a900460ff16905085565b6103bc6109f4565b6000600286866040516103d09291906110aa565b908152602001604051809103902090506000801b816000015414610429576040517f08c379a000000000000000000000000000000000000000000000000000000000815260040161042090611120565b60405180910390fd5b83816000018190555082816001018190555060008160020160006101000a81548160ff02191690831515021790555060008160040160006101000a81548160ff021916908360ff160217905550818160030181905550505050505050565b60008054906101000a900473ffffffffffffffffffffffffffffffffffffffff1681565b6104b36109f4565b600282826040516104c59291906110aa565b908152602001604051809103902060020160009054906101000a900460ff16610523576040517f08c379a000000000000000000000000000000000000000000000000000000000815260040161051a9061118c565b60405180910390fd5b6000600283836040516105379291906110aa565b908152602001604051809103902060020160006101000a81548160ff0219169083151502179055505050565b61056b6109f4565b6002828260405161057d9291906110aa565b908152602001604051809103902060020160009054906101000a900460ff16156105dc576040517f08c379a00000000000000000000000000000000000000000000000000000000081526004016105d3906111f8565b60405180910390fd5b6001600283836040516105f09291906110aa565b908152602001604051809103902060020160006101000a81548160ff0219169083151502179055505050565b60016020528160005260406000206020528060005260406000206000915091509054906101000a900460ff1681565b60006002838360405161065f9291906110aa565b908152602001604051809103902090506000801b8160000154036106b8576040517f08c379a00000000000000000000000000000000000000000000000000000000081526004016106af90611264565b60405180910390fd5b8060020160009054906101000a900460ff161561070a576040517f08c379a0000000000000000000000000000000000000000000000000000000008152600401610701906112d0565b60405180910390fd5b600081600101541480610721575080600101544211155b610760576040517f08c379a00000000000000000000000000000000000000000000000000000000081526004016107579061133c565b60405180910390fd5b600160008260030154815260200190815260200160002060003373ffffffffffffffffffffffffffffffffffffffff1673ffffffffffffffffffffffffffffffffffffffff16815260200190815260200160002060009054906101000a900460ff16610801576040517f08c379a00000000000000000000000000000000000000000000000000000000081526004016107f8906113a8565b60405180910390fd5b8060050160003373ffffffffffffffffffffffffffffffffffffffff1673ffffffffffffffffffffffffffffffffffffffff16815260200190815260200160002060009054906101000a900460ff1615610890576040517f08c379a000000000000000000000000000000000000000000000000000000000815260040161088790611414565b60405180910390fd5b60018160050160003373ffffffffffffffffffffffffffffffffffffffff1673ffffffffffffffffffffffffffffffffffffffff16815260200190815260200160002060006101000a81548160ff02191690831515021790555080600401600081819054906101000a900460ff168092919061090b90611463565b91906101000a81548160ff021916908360ff160217905550503373ffffffffffffffffffffffffffffffffffffffff167f1c456bf6a5b08f982b32ea5a8aafa22dd539e7f291a0e7693ec5b273ad6e97fc84844260405161096e939291906114b9565b60405180910390a2505050565b60006002848460405161098f9291906110aa565b908152602001604051809103902060050160008373ffffffffffffffffffffffffffffffffffffffff1673ffffffffffffffffffffffffffffffffffffffff16815260200190815260200160002060009054906101000a900460ff1690509392505050565b60008054906101000a900473ffffffffffffffffffffffffffffffffffffffff1673ffffffffffffffffffffffffffffffffffffffff163373ffffffffffffffffffffffffffffffffffffffff1614610a82576040517f08c379a0000000000000000000000000000000000000000000000000000000008152600401610a799061155d565b60405180910390fd5b565b6000604051905090565b600080fd5b600080fd5b6000819050919050565b610aab81610a98565b8114610ab657600080fd5b50565b600081359050610ac881610aa2565b92915050565b600073ffffffffffffffffffffffffffffffffffffffff82169050919050565b6000610af982610ace565b9050919050565b610b0981610aee565b8114610b1457600080fd5b50565b600081359050610b2681610b00565b92915050565b60008115159050919050565b610b4181610b2c565b8114610b4c57600080fd5b50565b600081359050610b5e81610b38565b92915050565b600080600060608486031215610b7d57610b7c610a8e565b5b6000610b8b86828701610ab9565b9350506020610b9c86828701610b17565b9250506040610bad86828701610b4f565b9150509250925092565b600060208284031215610bcd57610bcc610a8e565b5b6000610bdb84828501610ab9565b91505092915050565b600060ff82169050919050565b610bfa81610be4565b82525050565b6000602082019050610c156000830184610bf1565b92915050565b600080fd5b600080fd5b600080fd5b60008083601f840112610c4057610c3f610c1b565b5b8235905067ffffffffffffffff811115610c5d57610c5c610c20565b5b602083019150836001820283011115610c7957610c78610c25565b5b9250929050565b60008060208385031215610c9757610c96610a8e565b5b600083013567ffffffffffffffff811115610cb557610cb4610a93565b5b610cc185828601610c2a565b92509250509250929050565b610cd681610b2c565b82525050565b6000602082019050610cf16000830184610ccd565b92915050565b600080fd5b6000601f19601f8301169050919050565b7f4e487b7100000000000000000000000000000000000000000000000000000000600052604160045260246000fd5b610d4582610cfc565b810181811067ffffffffffffffff82111715610d6457610d63610d0d565b5b80604052505050565b6000610d77610a84565b9050610d838282610d3c565b919050565b600067ffffffffffffffff821115610da357610da2610d0d565b5b610dac82610cfc565b9050602081019050919050565b82818337600083830152505050565b6000610ddb610dd684610d88565b610d6d565b905082815260208101848484011115610df757610df6610cf7565b5b610e02848285610db9565b509392505050565b600082601f830112610e1f57610e1e610c1b565b5b8135610e2f848260208601610dc8565b91505092915050565b600060208284031215610e4e57610e4d610a8e565b5b600082013567ffffffffffffffff811115610e6c57610e6b610a93565b5b610e7884828501610e0a565b91505092915050565b610e8a81610a98565b82525050565b6000819050919050565b610ea381610e90565b82525050565b600060a082019050610ebe6000830188610e81565b610ecb6020830187610e9a565b610ed86040830186610ccd565b610ee56060830185610e81565b610ef26080830184610bf1565b9695505050505050565b610f0581610e90565b8114610f1057600080fd5b50565b600081359050610f2281610efc565b92915050565b600080600080600060808688031215610f4457610f43610a8e565b5b600086013567ffffffffffffffff811115610f6257610f61610a93565b5b610f6e88828901610c2a565b95509550506020610f8188828901610ab9565b9350506040610f9288828901610f13565b9250506060610fa388828901610ab9565b9150509295509295909350565b610fb981610aee565b82525050565b6000602082019050610fd46000830184610fb0565b92915050565b60008060408385031215610ff157610ff0610a8e565b5b6000610fff85828601610ab9565b925050602061101085828601610b17565b9150509250929050565b60008060006040848603121561103357611032610a8e565b5b600084013567ffffffffffffffff81111561105157611050610a93565b5b61105d86828701610c2a565b9350935050602061107086828701610b17565b9150509250925092565b600081905092915050565b6000611091838561107a565b935061109e838584610db9565b82840190509392505050565b60006110b7828486611085565b91508190509392505050565b600082825260208201905092915050565b7f5265636f726420616c7265616479206578697374730000000000000000000000600082015250565b600061110a6015836110c3565b9150611115826110d4565b602082019050919050565b60006020820190508181036000830152611139816110fd565b9050919050565b7f5265636f7264206973206e6f74207265766f6b65640000000000000000000000600082015250565b60006111766015836110c3565b915061118182611140565b602082019050919050565b600060208201905081810360008301526111a581611169565b9050919050565b7f5265636f726420697320616c7265616479207265766f6b656400000000000000600082015250565b60006111e26019836110c3565b91506111ed826111ac565b602082019050919050565b60006020820190508181036000830152611211816111d5565b9050919050565b7f5265636f726420646f6573206e6f742065786973740000000000000000000000600082015250565b600061124e6015836110c3565b915061125982611218565b602082019050919050565b6000602082019050818103600083015261127d81611241565b9050919050565b7f5265636f7264207265766f6b6564000000000000000000000000000000000000600082015250565b60006112ba600e836110c3565b91506112c582611284565b602082019050919050565b600060208201905081810360008301526112e9816112ad565b9050919050565b7f5265636f72642065787069726564000000000000000000000000000000000000600082015250565b6000611326600e836110c3565b9150611331826112f0565b602082019050919050565b6000602082019050818103600083015261135581611319565b9050919050565b7f4e6f7420617574686f72697a6564205369676e65720000000000000000000000600082015250565b60006113926015836110c3565b915061139d8261135c565b602082019050919050565b600060208201905081810360008301526113c181611385565b9050919050565b7f416c7265616479207369676e6564210000000000000000000000000000000000600082015250565b60006113fe600f836110c3565b9150611409826113c8565b602082019050919050565b6000602082019050818103600083015261142d816113f1565b9050919050565b7f4e487b7100000000000000000000000000000000000000000000000000000000600052601160045260246000fd5b600061146e82610be4565b915060ff820361148157611480611434565b5b600182019050919050565b600061149883856110c3565b93506114a5838584610db9565b6114ae83610cfc565b840190509392505050565b600060408201905081810360008301526114d481858761148c565b90506114e36020830184610e9a565b949350505050565b7f4f6e6c792074686520556e69766572736974792063616e20706572666f726d2060008201527f7468697320616374696f6e000000000000000000000000000000000000000000602082015250565b6000611547602b836110c3565b9150611552826114eb565b604082019050919050565b600060208201905081810360008301526115768161153a565b905091905056fea2646970667358221220af49921fa4cb2be163833de214efcd38a92ff4a8957edb9a505eec427b6689b164736f6c63430008130033",
    "linkReferences": {}
  },
  "methodIdentifiers": {
    "addRecord(string,bytes32,uint256,bytes32)": "8ce41216",
    "credentialTypeSigner(bytes32,address)": "d27e5e65",
    "hasSigned(string,address)": "e9dd9d49",
    "isFullySigned(string)": "3d4c04ec",
    "owner()": "8da5cb5b",
    "records(string)": "541e771d",
    "requiredSignatureCount(bytes32)": "32866440",
    "restoreRecord(string)": "9f8246ce",
    "revokeRecord(string)": "c8468316",
    "setCredentialTypeSigner(bytes32,address,bool)": "02ad0259",
    "signRecord(string)": "dc5fdd2d"
  },
  "id": 23
}