{
  "abi": [
    {
      "type": "constructor",
      "inputs": [],
      "stateMutability": "nonpayable"
    },
    {
      "type": "function",
      "name": "addRecord",
      "inputs": [
        {
          "name": "_recordId",
          "type": "string",
          "internalType": "string"
        },
        {
          "name": "_dataHash",
          "type": "bytes32",
          "internalType": "bytes32"
        },
        {
          "name": "_expiration",
          "type": "uint256",
          "internalType": "uint256"
        },
        {
          "name": "_credentialType",
          "type": "uint8",
          "internalType": "enum CredentialVerifier.CredentialType"
        }
      ],
      "outputs": [],
      "stateMutability": "nonpayable"
    },
    {
      "type": "function",
      "name": "owner",
      "inputs": [],
      "outputs": [
        {
          "name": "",
          "type": "address",
          "internalType": "address"
        }
      ],
      "stateMutability": "view"
    },
    {
      "type": "function",
      "name": "records",
      "inputs": [
        {
          "name": "",
          "type": "string",
          "internalType": "string"
        }
      ],
      "outputs": [
        {
          "name": "dataHash",
          "type": "bytes32",
          "internalType": "bytes32"
        },
        {
          "name": "expiration",
          "type": "uint256",
          "internalType": "uint256"
        },
        {
          "name": "isRevoked",
          "type": "bool",
          "internalType": "bool"
        },
        {
          "name": "credentialType",
          "type": "uint8",
          "internalType": "enum CredentialVerifier.CredentialType"
        }
      ],
      "stateMutability": "view"
    },
    {
      "type": "function",
      "name": "restoreRecord",
      "inputs": [
        {
          "name": "_recordId",
          "type": "string",
          "internalType": "string"
        }
      ],
      "outputs": [],
      "stateMutability": "nonpayable"
    },
    {
      "type": "function",
      "name": "revokeRecord",
      "inputs": [
        {
          "name": "_recordId",
          "type": "string",
          "internalType": "string"
        }
      ],
      "outputs": [],
      "stateMutability": "nonpayable"
    }
  ],
  "bytecode": {
    "object": "0x608060405234801561001057600080fd5b50336000806101000a81548173ffffffffffffffffffffffffffffffffffffffff021916908373ffffffffffffffffffffffffffffffffffffffff160217905550610b05806100606000396000f3fe608060405234801561001057600080fd5b50600436106100575760003560e01c8063541e771d1461005c5780638da5cb5b1461008f5780639f8246ce146100ad578063c8468316146100c9578063fda2a151146100e5575b600080fd5b610076600480360381019061007191906105ab565b610101565b60405161008694939291906106b8565b60405180910390f35b610097610161565b6040516100a4919061073e565b60405180910390f35b6100c760048036038101906100c291906107b9565b610185565b005b6100e360048036038101906100de91906107b9565b61023d565b005b6100ff60048036038101906100fa9190610883565b6102f5565b005b6001818051602081018201805184825260208301602085012081835280955050505050506000915090508060000154908060010154908060020160009054906101000a900460ff16908060020160019054906101000a900460ff16905084565b60008054906101000a900473ffffffffffffffffffffffffffffffffffffffff1681565b61018d6103c1565b6001828260405161019f92919061093b565b908152602001604051809103902060020160009054906101000a900460ff166101fd576040517f08c379a00000000000000000000000000000000000000000000000000000000081526004016101f4906109b1565b60405180910390fd5b60006001838360405161021192919061093b565b908152602001604051809103902060020160006101000a81548160ff0219169083151502179055505050565b6102456103c1565b6001828260405161025792919061093b565b908152602001604051809103902060020160009054906101000a900460ff16156102b6576040517f08c379a00000000000000000000000000000000000000000000000000000000081526004016102ad90610a1d565b60405180910390fd5b60018083836040516102c992919061093b565b908152602001604051809103902060020160006101000a81548160ff0219169083151502179055505050565b6102fd6103c1565b60405180608001604052808481526020018381526020016000151581526020018260098111156103305761032f610641565b5b8152506001868660405161034592919061093b565b9081526020016040518091039020600082015181600001556020820151816001015560408201518160020160006101000a81548160ff02191690831515021790555060608201518160020160016101000a81548160ff021916908360098111156103b2576103b1610641565b5b02179055509050505050505050565b60008054906101000a900473ffffffffffffffffffffffffffffffffffffffff1673ffffffffffffffffffffffffffffffffffffffff163373ffffffffffffffffffffffffffffffffffffffff161461044f576040517f08c379a000000000000000000000000000000000000000000000000000000000815260040161044690610aaf565b60405180910390fd5b565b6000604051905090565b600080fd5b600080fd5b600080fd5b600080fd5b6000601f19601f8301169050919050565b7f4e487b7100000000000000000000000000000000000000000000000000000000600052604160045260246000fd5b6104b88261046f565b810181811067ffffffffffffffff821117156104d7576104d6610480565b5b80604052505050565b60006104ea610451565b90506104f682826104af565b919050565b600067ffffffffffffffff82111561051657610515610480565b5b61051f8261046f565b9050602081019050919050565b82818337600083830152505050565b600061054e610549846104fb565b6104e0565b90508281526020810184848401111561056a5761056961046a565b5b61057584828561052c565b509392505050565b600082601f83011261059257610591610465565b5b81356105a284826020860161053b565b91505092915050565b6000602082840312156105c1576105c061045b565b5b600082013567ffffffffffffffff8111156105df576105de610460565b5b6105eb8482850161057d565b91505092915050565b6000819050919050565b610607816105f4565b82525050565b6000819050919050565b6106208161060d565b82525050565b60008115159050919050565b61063b81610626565b82525050565b7f4e487b7100000000000000000000000000000000000000000000000000000000600052602160045260246000fd5b600a811061068157610680610641565b5b50565b600081905061069282610670565b919050565b60006106a282610684565b9050919050565b6106b281610697565b82525050565b60006080820190506106cd60008301876105fe565b6106da6020830186610617565b6106e76040830185610632565b6106f460608301846106a9565b95945050505050565b600073ffffffffffffffffffffffffffffffffffffffff82169050919050565b6000610728826106fd565b9050919050565b6107388161071d565b82525050565b6000602082019050610753600083018461072f565b92915050565b600080fd5b600080fd5b60008083601f84011261077957610778610465565b5b8235905067ffffffffffffffff81111561079657610795610759565b5b6020830191508360018202830111156107b2576107b161075e565b5b9250929050565b600080602083850312156107d0576107cf61045b565b5b600083013567ffffffffffffffff8111156107ee576107ed610460565b5b6107fa85828601610763565b92509250509250929050565b61080f816105f4565b811461081a57600080fd5b50565b60008135905061082c81610806565b92915050565b61083b8161060d565b811461084657600080fd5b50565b60008135905061085881610832565b92915050565b600a811061086b57600080fd5b50565b60008135905061087d8161085e565b92915050565b60008060008060006080868803121561089f5761089e61045b565b5b600086013567ffffffffffffffff8111156108bd576108bc610460565b5b6108c988828901610763565b955095505060206108dc8882890161081d565b93505060406108ed88828901610849565b92505060606108fe8882890161086e565b9150509295509295909350565b600081905092915050565b6000610922838561090b565b935061092f83858461052c565b82840190509392505050565b6000610948828486610916565b91508190509392505050565b600082825260208201905092915050565b7f5265636f7264206973206e6f74207265766f6b65640000000000000000000000600082015250565b600061099b601583610954565b91506109a682610965565b602082019050919050565b600060208201905081810360008301526109ca8161098e565b9050919050565b7f5265636f726420697320616c7265616479207265766f6b656400000000000000600082015250565b6000610a07601983610954565b9150610a12826109d1565b602082019050919050565b60006020820190508181036000830152610a36816109fa565b9050919050565b7f4f6e6c792074686520556e69766572736974792063616e20706572666f726d2060008201527f7468697320616374696f6e000000000000000000000000000000000000000000602082015250565b6000610a99602b83610954565b9150610aa482610a3d565b604082019050919050565b60006020820190508181036000830152610ac881610a8c565b905091905056fea26469706673582212209e74223ccd429d28b8d8d051f527963ed537ac4e5a32e2c7bb824c79ef5f5f4164736f6c63430008130033",
    "linkReferences": {}
  },
  "methodIdentifiers": {
    "addRecord(string,bytes32,uint256,uint8)": "fda2a151",
    "owner()": "8da5cb5b",
    "records(string)": "541e771d",
    "restoreRecord(string)": "9f8246ce",
    "revokeRecord(string)": "c8468316"
  },
  "id": 16
}