{
  "abi": [
    {
      "type": "constructor",
      "inputs": [],
      "stateMutability": "nonpayable"
    },
    {
      "type": "function",
      "name": "addNewCredentialType",
      "inputs": [
        {
          "name": "credentialTypeId",
          "type": "bytes32",
          "internalType": "bytes32"
        },
        {
          "name": "signers",
          "type": "address[]",
          "internalType": "address[]"
        },
        {
          "name": "requiredCount",
          "type": "uint8",
          "internalType": "uint8"
        }
      ],
      "outputs": [],
      "stateMutability": "nonpayable"
    },
    {
      "type": "function",
      "name": "addRecord",
      "inputs": [
        {
          "name": "_recordId",
          "type": "string",
          "internalType": "string"
        },
        {
          "name": "_dataHash",
          "type": "bytes32",
          "internalType": "bytes32"
        },
        {
          "name": "_expiration",
          "type": "uint256",
          "internalType": "uint256"
        },
        {
          "name": "_credentialTypeId",
          "type": "bytes32",
          "internalType": "bytes32"
        }
      ],
      "outputs": [],
      "stateMutability": "nonpayable"
    },
    {
      "type": "function",
      "name": "batchSignRecords",
      "inputs": [
        {
          "name": "recordIds",
          "type": "string[]",
          "internalType": "string[]"
        }
      ],
      "outputs": [],
      "stateMutability": "nonpayable"
    },
    {
      "type": "function",
      "name": "credentialTypeSigner",
      "inputs": [
        {
          "name": "",
          "type": "bytes32",
          "internalType": "bytes32"
        },
        {
          "name": "",
          "type": "address",
          "internalType": "address"
        }
      ],
      "outputs": [
        {
          "name": "",
          "type": "bool",
          "internalType": "bool"
        }
      ],
      "stateMutability": "view"
    },
    {
      "type": "function",
      "name": "getRecord",
      "inputs": [
        {
          "name": "recordId",
          "type": "string",
          "internalType": "string"
        }
      ],
      "outputs": [
        {
          "name": "dataHash",
          "type": "bytes32",
          "internalType": "bytes32"
        },
        {
          "name": "expiration",
          "type": "uint256",
          "internalType": "uint256"
        },
        {
          "name": "isRevoked",
          "type": "bool",
          "internalType": "bool"
        },
        {
          "name": "credentialTypeId",
          "type": "bytes32",
          "internalType": "bytes32"
        },
        {
          "name": "currentSignatures",
          "type": "uint8",
          "internalType": "uint8"
        }
      ],
      "stateMutability": "view"
    },
    {
      "type": "function",
      "name": "hasSigned",
      "inputs": [
        {
          "name": "recordId",
          "type": "string",
          "internalType": "string"
        },
        {
          "name": "signer",
          "type": "address",
          "internalType": "address"
        }
      ],
      "outputs": [
        {
          "name": "",
          "type": "bool",
          "internalType": "bool"
        }
      ],
      "stateMutability": "view"
    },
    {
      "type": "function",
      "name": "isFullySigned",
      "inputs": [
        {
          "name": "recordId",
          "type": "string",
          "internalType": "string"
        }
      ],
      "outputs": [
        {
          "name": "",
          "type": "bool",
          "internalType": "bool"
        }
      ],
      "stateMutability": "view"
    },
    {
      "type": "function",
      "name": "owner",
      "inputs": [],
      "outputs": [
        {
          "name": "",
          "type": "address",
          "internalType": "address"
        }
      ],
      "stateMutability": "view"
    },
    {
      "type": "function",
      "name": "records",
      "inputs": [
        {
          "name": "",
          "type": "bytes32",
          "internalType": "bytes32"
        }
      ],
      "outputs": [
        {
          "name": "dataHash",
          "type": "bytes32",
          "internalType": "bytes32"
        },
        {
          "name": "expiration",
          "type": "uint256",
          "internalType": "uint256"
        },
        {
          "name": "isRevoked",
          "type": "bool",
          "internalType": "bool"
        },
        {
          "name": "credentialTypeId",
          "type": "bytes32",
          "internalType": "bytes32"
        },
        {
          "name": "currentSignatures",
          "type": "uint8",
          "internalType": "uint8"
        }
      ],
      "stateMutability": "view"
    },
    {
      "type": "function",
      "name": "requiredSignatureCount",
      "inputs": [
        {
          "name": "",
          "type": "bytes32",
          "internalType": "bytes32"
        }
      ],
      "outputs": [
        {
          "name": "",
          "type": "uint8",
          "internalType": "uint8"
        }
      ],
      "stateMutability": "view"
    },
    {
      "type": "function",
      "name": "restoreRecord",
      "inputs": [
        {
          "name": "_recordId",
          "type": "string",
          "internalType": "string"
        }
      ],
      "outputs": [],
      "stateMutability": "nonpayable"
    },
    {
      "type": "function",
      "name": "revokeRecord",
      "inputs": [
        {
          "name": "_recordId",
          "type": "string",
          "internalType": "string"
        }
      ],
      "outputs": [],
      "stateMutability": "nonpayable"
    },
    {
      "type": "function",
      "name": "setCredentialTypeSigner",
      "inputs": [
        {
          "name": "credentialTypeId",
          "type": "bytes32",
          "internalType": "bytes32"
        },
        {
          "name": "signers",
          "type": "address[]",
          "internalType": "address[]"
        },
        {
          "name": "allowed",
          "type": "bool",
          "internalType": "bool"
        }
      ],
      "outputs": [],
      "stateMutability": "nonpayable"
    },
    {
      "type": "function",
      "name": "setRequiredSignatureCount",
      "inputs": [
        {
          "name": "credentialTypeId",
          "type": "bytes32",
          "internalType": "bytes32"
        },
        {
          "name": "count",
          "type": "uint8",
          "internalType": "uint8"
        }
      ],
      "outputs": [],
      "stateMutability": "nonpayable"
    },
    {
      "type": "function",
      "name": "signRecord",
      "inputs": [
        {
          "name": "recordId",
          "type": "string",
          "internalType": "string"
        }
      ],
      "outputs": [],
      "stateMutability": "nonpayable"
    },
    {
      "type": "event",
      "name": "RecordSigned",
      "inputs": [
        {
          "name": "recordIdRaw",
          "type": "string",
          "indexed": false,
          "internalType": "string"
        },
        {
          "name": "signer",
          "type": "address",
          "indexed": true,
          "internalType": "address"
        },
        {
          "name": "timestamp",
          "type": "uint256",
          "indexed": false,
          "internalType": "uint256"
        }
      ],
      "anonymous": false
    }
  ],
  "bytecode": {
    "object": "0x608060405234801561001057600080fd5b50336000806101000a81548173ffffffffffffffffffffffffffffffffffffffff021916908373ffffffffffffffffffffffffffffffffffffffff160217905550611dd3806100606000396000f3fe608060405234801561001057600080fd5b50600436106100f55760003560e01c80638da5cb5b11610097578063dc5fdd2d11610066578063dc5fdd2d1461029c578063e9dd9d49146102b8578063f252c302146102e8578063f94a8a9b14610304576100f5565b80638da5cb5b146102165780639f8246ce14610234578063c846831614610250578063d27e5e651461026c576100f5565b806332866440116100d3578063328664401461017e57806338c6f81d146101ae5780633d4c04ec146101ca5780638ce41216146101fa576100f5565b80630106b2eb146100fa57806301e647251461011657806311dd88451461014a575b600080fd5b610114600480360381019061010f9190610fc9565b610320565b005b610130600480360381019061012b919061103d565b61049d565b6040516101419594939291906110bd565b60405180910390f35b610164600480360381019061015f9190611166565b6104ed565b6040516101759594939291906110bd565b60405180910390f35b6101986004803603810190610193919061103d565b6105ab565b6040516101a591906111b3565b60405180910390f35b6101c860048036038101906101c39190611224565b6105cb565b005b6101e460048036038101906101df9190611166565b610666565b6040516101f19190611271565b60405180910390f35b610214600480360381019061020f91906112b8565b6106d5565b005b61021e6107aa565b60405161022b9190611381565b60405180910390f35b61024e60048036038101906102499190611166565b6107ce565b005b61026a60048036038101906102659190611166565b61087b565b005b610286600480360381019061028191906113c8565b610929565b6040516102939190611271565b60405180910390f35b6102b660048036038101906102b19190611166565b610958565b005b6102d260048036038101906102cd9190611408565b610967565b6040516102df9190611271565b60405180910390f35b61030260048036038101906102fd9190611494565b6109e1565b005b61031e600480360381019061031991906114d4565b610a5f565b005b610328610a84565b600083839050905060008111610373576040517f08c379a000000000000000000000000000000000000000000000000000000000815260040161036a906115a5565b60405180910390fd5b60005b81811015610495576000858583818110610393576103926115c5565b5b90506020020160208101906103a891906115f4565b9050600073ffffffffffffffffffffffffffffffffffffffff168173ffffffffffffffffffffffffffffffffffffffff1603610419576040517f08c379a00000000000000000000000000000000000000000000000000000000081526004016104109061166d565b60405180910390fd5b836001600089815260200190815260200160002060008373ffffffffffffffffffffffffffffffffffffffff1673ffffffffffffffffffffffffffffffffffffffff16815260200190815260200160002060006101000a81548160ff02191690831515021790555050808061048d906116bc565b915050610376565b505050505050565b60026020528060005260406000206000915090508060000154908060010154908060020160009054906101000a900460ff16908060030154908060040160009054906101000a900460ff16905085565b6000806000806000806105008888610b14565b905060006002600083815260200190815260200160002090506000801b816000015403610562576040517f08c379a000000000000000000000000000000000000000000000000000000000815260040161055990611750565b60405180910390fd5b806000015481600101548260020160009054906101000a900460ff1683600301548460040160009054906101000a900460ff169650965096509650965050509295509295909350565b60036020528060005260406000206000915054906101000a900460ff1681565b6032828290501115610612576040517f08c379a0000000000000000000000000000000000000000000000000000000008152600401610609906117bc565b60405180910390fd5b60005b828290508110156106615761064e838383818110610636576106356115c5565b5b905060200281019061064891906117eb565b33610b36565b8080610659906116bc565b915050610615565b505050565b6000806106738484610b14565b90506000600260008381526020019081526020016000209050600360008260030154815260200190815260200160002060009054906101000a900460ff1660ff168160040160009054906101000a900460ff1660ff1610159250505092915050565b6106dd610a84565b60006106e98686610b14565b905060006002600083815260200190815260200160002090506000801b81600001541461074b576040517f08c379a00000000000000000000000000000000000000000000000000000000081526004016107429061189a565b60405180910390fd5b84816000018190555083816001018190555060008160020160006101000a81548160ff02191690831515021790555060008160040160006101000a81548160ff021916908360ff16021790555082816003018190555050505050505050565b60008054906101000a900473ffffffffffffffffffffffffffffffffffffffff1681565b6107d6610a84565b60006107e28383610b14565b90506002600082815260200190815260200160002060020160009054906101000a900460ff16610847576040517f08c379a000000000000000000000000000000000000000000000000000000000815260040161083e90611906565b60405180910390fd5b60006002600083815260200190815260200160002060020160006101000a81548160ff021916908315150217905550505050565b610883610a84565b600061088f8383610b14565b90506002600082815260200190815260200160002060020160009054906101000a900460ff16156108f5576040517f08c379a00000000000000000000000000000000000000000000000000000000081526004016108ec90611972565b60405180910390fd5b60016002600083815260200190815260200160002060020160006101000a81548160ff021916908315150217905550505050565b60016020528160005260406000206020528060005260406000206000915091509054906101000a900460ff1681565b610963828233610b36565b5050565b6000806109748585610b14565b90506002600082815260200190815260200160002060050160008473ffffffffffffffffffffffffffffffffffffffff1673ffffffffffffffffffffffffffffffffffffffff16815260200190815260200160002060009054906101000a900460ff169150509392505050565b6109e9610a84565b60008160ff1611610a2f576040517f08c379a0000000000000000000000000000000000000000000000000000000008152600401610a26906119de565b60405180910390fd5b806003600084815260200190815260200160002060006101000a81548160ff021916908360ff1602179055505050565b610a67610a84565b610a748484846001610320565b610a7e84826109e1565b50505050565b60008054906101000a900473ffffffffffffffffffffffffffffffffffffffff1673ffffffffffffffffffffffffffffffffffffffff163373ffffffffffffffffffffffffffffffffffffffff1614610b12576040517f08c379a0000000000000000000000000000000000000000000000000000000008152600401610b0990611a70565b60405180910390fd5b565b60008282604051610b26929190611acf565b6040518091039020905092915050565b6000610b428484610b14565b905060006002600083815260200190815260200160002090506000600360008360030154815260200190815260200160002060009054906101000a900460ff1690506000801b826000015403610bcd576040517f08c379a0000000000000000000000000000000000000000000000000000000008152600401610bc490611750565b60405180910390fd5b8160020160009054906101000a900460ff1615610c1f576040517f08c379a0000000000000000000000000000000000000000000000000000000008152600401610c1690611b34565b60405180910390fd5b600082600101541480610c36575081600101544211155b610c75576040517f08c379a0000000000000000000000000000000000000000000000000000000008152600401610c6c90611ba0565b60405180910390fd5b8060ff168260040160009054906101000a900460ff1660ff1610610cce576040517f08c379a0000000000000000000000000000000000000000000000000000000008152600401610cc590611c0c565b60405180910390fd5b600160008360030154815260200190815260200160002060008573ffffffffffffffffffffffffffffffffffffffff1673ffffffffffffffffffffffffffffffffffffffff16815260200190815260200160002060009054906101000a900460ff16610d6f576040517f08c379a0000000000000000000000000000000000000000000000000000000008152600401610d6690611c78565b60405180910390fd5b8160050160008573ffffffffffffffffffffffffffffffffffffffff1673ffffffffffffffffffffffffffffffffffffffff16815260200190815260200160002060009054906101000a900460ff1615610dfe576040517f08c379a0000000000000000000000000000000000000000000000000000000008152600401610df590611ce4565b60405180910390fd5b60018260050160008673ffffffffffffffffffffffffffffffffffffffff1673ffffffffffffffffffffffffffffffffffffffff16815260200190815260200160002060006101000a81548160ff02191690831515021790555081600401600081819054906101000a900460ff1680929190610e7990611d04565b91906101000a81548160ff021916908360ff160217905550508373ffffffffffffffffffffffffffffffffffffffff167f1c456bf6a5b08f982b32ea5a8aafa22dd539e7f291a0e7693ec5b273ad6e97fc878742604051610edc93929190611d6b565b60405180910390a2505050505050565b600080fd5b600080fd5b6000819050919050565b610f0981610ef6565b8114610f1457600080fd5b50565b600081359050610f2681610f00565b92915050565b600080fd5b600080fd5b600080fd5b60008083601f840112610f5157610f50610f2c565b5b8235905067ffffffffffffffff811115610f6e57610f6d610f31565b5b602083019150836020820283011115610f8a57610f89610f36565b5b9250929050565b60008115159050919050565b610fa681610f91565b8114610fb157600080fd5b50565b600081359050610fc381610f9d565b92915050565b60008060008060608587031215610fe357610fe2610eec565b5b6000610ff187828801610f17565b945050602085013567ffffffffffffffff81111561101257611011610ef1565b5b61101e87828801610f3b565b9350935050604061103187828801610fb4565b91505092959194509250565b60006020828403121561105357611052610eec565b5b600061106184828501610f17565b91505092915050565b61107381610ef6565b82525050565b6000819050919050565b61108c81611079565b82525050565b61109b81610f91565b82525050565b600060ff82169050919050565b6110b7816110a1565b82525050565b600060a0820190506110d2600083018861106a565b6110df6020830187611083565b6110ec6040830186611092565b6110f9606083018561106a565b61110660808301846110ae565b9695505050505050565b60008083601f84011261112657611125610f2c565b5b8235905067ffffffffffffffff81111561114357611142610f31565b5b60208301915083600182028301111561115f5761115e610f36565b5b9250929050565b6000806020838503121561117d5761117c610eec565b5b600083013567ffffffffffffffff81111561119b5761119a610ef1565b5b6111a785828601611110565b92509250509250929050565b60006020820190506111c860008301846110ae565b92915050565b60008083601f8401126111e4576111e3610f2c565b5b8235905067ffffffffffffffff81111561120157611200610f31565b5b60208301915083602082028301111561121d5761121c610f36565b5b9250929050565b6000806020838503121561123b5761123a610eec565b5b600083013567ffffffffffffffff81111561125957611258610ef1565b5b611265858286016111ce565b92509250509250929050565b60006020820190506112866000830184611092565b92915050565b61129581611079565b81146112a057600080fd5b50565b6000813590506112b28161128c565b92915050565b6000806000806000608086880312156112d4576112d3610eec565b5b600086013567ffffffffffffffff8111156112f2576112f1610ef1565b5b6112fe88828901611110565b9550955050602061131188828901610f17565b9350506040611322888289016112a3565b925050606061133388828901610f17565b9150509295509295909350565b600073ffffffffffffffffffffffffffffffffffffffff82169050919050565b600061136b82611340565b9050919050565b61137b81611360565b82525050565b60006020820190506113966000830184611372565b92915050565b6113a581611360565b81146113b057600080fd5b50565b6000813590506113c28161139c565b92915050565b600080604083850312156113df576113de610eec565b5b60006113ed85828601610f17565b92505060206113fe858286016113b3565b9150509250929050565b60008060006040848603121561142157611420610eec565b5b600084013567ffffffffffffffff81111561143f5761143e610ef1565b5b61144b86828701611110565b9350935050602061145e868287016113b3565b9150509250925092565b611471816110a1565b811461147c57600080fd5b50565b60008135905061148e81611468565b92915050565b600080604083850312156114ab576114aa610eec565b5b60006114b985828601610f17565b92505060206114ca8582860161147f565b9150509250929050565b600080600080606085870312156114ee576114ed610eec565b5b60006114fc87828801610f17565b945050602085013567ffffffffffffffff81111561151d5761151c610ef1565b5b61152987828801610f3b565b9350935050604061153c8782880161147f565b91505092959194509250565b600082825260208201905092915050565b7f4e6f207369676e6572732070726f766964656400000000000000000000000000600082015250565b600061158f601383611548565b915061159a82611559565b602082019050919050565b600060208201905081810360008301526115be81611582565b9050919050565b7f4e487b7100000000000000000000000000000000000000000000000000000000600052603260045260246000fd5b60006020828403121561160a57611609610eec565b5b6000611618848285016113b3565b91505092915050565b7f5a65726f20616464726573730000000000000000000000000000000000000000600082015250565b6000611657600c83611548565b915061166282611621565b602082019050919050565b600060208201905081810360008301526116868161164a565b9050919050565b7f4e487b7100000000000000000000000000000000000000000000000000000000600052601160045260246000fd5b60006116c782611079565b91507fffffffffffffffffffffffffffffffffffffffffffffffffffffffffffffffff82036116f9576116f861168d565b5b600182019050919050565b7f5265636f726420646f6573206e6f742065786973740000000000000000000000600082015250565b600061173a601583611548565b915061174582611704565b602082019050919050565b600060208201905081810360008301526117698161172d565b9050919050565b7f426174636820746f6f206c6172676520286d6178203530290000000000000000600082015250565b60006117a6601883611548565b91506117b182611770565b602082019050919050565b600060208201905081810360008301526117d581611799565b9050919050565b600080fd5b600080fd5b600080fd5b60008083356001602003843603038112611808576118076117dc565b5b80840192508235915067ffffffffffffffff82111561182a576118296117e1565b5b602083019250600182023603831315611846576118456117e6565b5b509250929050565b7f5265636f726420616c7265616479206578697374730000000000000000000000600082015250565b6000611884601583611548565b915061188f8261184e565b602082019050919050565b600060208201905081810360008301526118b381611877565b9050919050565b7f5265636f7264206973206e6f74207265766f6b65640000000000000000000000600082015250565b60006118f0601583611548565b91506118fb826118ba565b602082019050919050565b6000602082019050818103600083015261191f816118e3565b9050919050565b7f5265636f726420697320616c7265616479207265766f6b656400000000000000600082015250565b600061195c601983611548565b915061196782611926565b602082019050919050565b6000602082019050818103600083015261198b8161194f565b9050919050565b7f436f756e74206d757374206265203e2030000000000000000000000000000000600082015250565b60006119c8601183611548565b91506119d382611992565b602082019050919050565b600060208201905081810360008301526119f7816119bb565b9050919050565b7f4f6e6c792074686520556e69766572736974792063616e20706572666f726d2060008201527f7468697320616374696f6e000000000000000000000000000000000000000000602082015250565b6000611a5a602b83611548565b9150611a65826119fe565b604082019050919050565b60006020820190508181036000830152611a8981611a4d565b9050919050565b600081905092915050565b82818337600083830152505050565b6000611ab68385611a90565b9350611ac3838584611a9b565b82840190509392505050565b6000611adc828486611aaa565b91508190509392505050565b7f5265636f7264207265766f6b6564000000000000000000000000000000000000600082015250565b6000611b1e600e83611548565b9150611b2982611ae8565b602082019050919050565b60006020820190508181036000830152611b4d81611b11565b9050919050565b7f5265636f72642065787069726564000000000000000000000000000000000000600082015250565b6000611b8a600e83611548565b9150611b9582611b54565b602082019050919050565b60006020820190508181036000830152611bb981611b7d565b9050919050565b7f416c72656164792066756c6c79207369676e6564000000000000000000000000600082015250565b6000611bf6601483611548565b9150611c0182611bc0565b602082019050919050565b60006020820190508181036000830152611c2581611be9565b9050919050565b7f4e6f7420617574686f72697a6564205369676e65720000000000000000000000600082015250565b6000611c62601583611548565b9150611c6d82611c2c565b602082019050919050565b60006020820190508181036000830152611c9181611c55565b9050919050565b7f416c7265616479207369676e6564210000000000000000000000000000000000600082015250565b6000611cce600f83611548565b9150611cd982611c98565b602082019050919050565b60006020820190508181036000830152611cfd81611cc1565b9050919050565b6000611d0f826110a1565b915060ff8203611d2257611d2161168d565b5b600182019050919050565b6000601f19601f8301169050919050565b6000611d4a8385611548565b9350611d57838584611a9b565b611d6083611d2d565b840190509392505050565b60006040820190508181036000830152611d86818587611d3e565b9050611d956020830184611083565b94935050505056fea2646970667358221220ac15fd6d1e0ba14a477888d69164b557a9767dd85ebbfbc3bbbba344c1222cfe64736f6c63430008130033",
    "linkReferences": {}
  },
  "methodIdentifiers": {
    "addNewCredentialType(bytes32,address[],uint8)": "f94a8a9b",
    "addRecord(string,bytes32,uint256,bytes32)": "8ce41216",
    "batchSignRecords(string[])": "38c6f81d",
    "credentialTypeSigner(bytes32,address)": "d27e5e65",
    "getRecord(string)": "11dd8845",
    "hasSigned(string,address)": "e9dd9d49",
    "isFullySigned(string)": "3d4c04ec",
    "owner()": "8da5cb5b",
    "records(bytes32)": "01e64725",
    "requiredSignatureCount(bytes32)": "32866440",
    "restoreRecord(string)": "9f8246ce",
    "revokeRecord(string)": "c8468316",
    "setCredentialTypeSigner(bytes32,address[],bool)": "0106b2eb",
    "setRequiredSignatureCount(bytes32,uint8)": "f252c302",
    "signRecord(string)": "dc5fdd2d"
  },
  "id": 16
}