{
  "abi": [
    {
      "type": "constructor",
      "inputs": [],
      "stateMutability": "nonpayable"
    },
    {
      "type": "function",
      "name": "addRecord",
      "inputs": [
        {
          "name": "_recordId",
          "type": "string",
          "internalType": "string"
        },
        {
          "name": "_dataHash",
          "type": "bytes32",
          "internalType": "bytes32"
        },
        {
          "name": "_expiration",
          "type": "uint256",
          "internalType": "uint256"
        }
      ],
      "outputs": [],
      "stateMutability": "nonpayable"
    },
    {
      "type": "function",
      "name": "owner",
      "inputs": [],
      "outputs": [
        {
          "name": "",
          "type": "address",
          "internalType": "address"
        }
      ],
      "stateMutability": "view"
    },
    {
      "type": "function",
      "name": "records",
      "inputs": [
        {
          "name": "",
          "type": "string",
          "internalType": "string"
        }
      ],
      "outputs": [
        {
          "name": "dataHash",
          "type": "bytes32",
          "internalType": "bytes32"
        },
        {
          "name": "expiration",
          "type": "uint256",
          "internalType": "uint256"
        },
        {
          "name": "isRevoked",
          "type": "bool",
          "internalType": "bool"
        }
      ],
      "stateMutability": "view"
    },
    {
      "type": "function",
      "name": "restoreRecord",
      "inputs": [
        {
          "name": "_recordId",
          "type": "string",
          "internalType": "string"
        }
      ],
      "outputs": [],
      "stateMutability": "nonpayable"
    },
    {
      "type": "function",
      "name": "revokeRecord",
      "inputs": [
        {
          "name": "_recordId",
          "type": "string",
          "internalType": "string"
        }
      ],
      "outputs": [],
      "stateMutability": "nonpayable"
    }
  ],
  "bytecode": {
    "object": "0x608060405234801561001057600080fd5b50336000806101000a81548173ffffffffffffffffffffffffffffffffffffffff021916908373ffffffffffffffffffffffffffffffffffffffff1602179055506109ea806100606000396000f3fe608060405234801561001057600080fd5b50600436106100575760003560e01c8063541e771d1461005c5780635f43cac31461008e5780638da5cb5b146100aa5780639f8246ce146100c8578063c8468316146100e4575b600080fd5b6100766004803603810190610071919061054e565b610100565b604051610085939291906105e4565b60405180910390f35b6100a860048036038101906100a391906106d3565b61014d565b005b6100b26101d0565b6040516100bf9190610788565b60405180910390f35b6100e260048036038101906100dd91906107a3565b6101f4565b005b6100fe60048036038101906100f991906107a3565b6102ac565b005b6001818051602081018201805184825260208301602085012081835280955050505050506000915090508060000154908060010154908060020160009054906101000a900460ff16905083565b610155610364565b60405180606001604052808381526020018281526020016000151581525060018585604051610185929190610820565b9081526020016040518091039020600082015181600001556020820151816001015560408201518160020160006101000a81548160ff02191690831515021790555090505050505050565b60008054906101000a900473ffffffffffffffffffffffffffffffffffffffff1681565b6101fc610364565b6001828260405161020e929190610820565b908152602001604051809103902060020160009054906101000a900460ff1661026c576040517f08c379a000000000000000000000000000000000000000000000000000000000815260040161026390610896565b60405180910390fd5b600060018383604051610280929190610820565b908152602001604051809103902060020160006101000a81548160ff0219169083151502179055505050565b6102b4610364565b600182826040516102c6929190610820565b908152602001604051809103902060020160009054906101000a900460ff1615610325576040517f08c379a000000000000000000000000000000000000000000000000000000000815260040161031c90610902565b60405180910390fd5b6001808383604051610338929190610820565b908152602001604051809103902060020160006101000a81548160ff0219169083151502179055505050565b60008054906101000a900473ffffffffffffffffffffffffffffffffffffffff1673ffffffffffffffffffffffffffffffffffffffff163373ffffffffffffffffffffffffffffffffffffffff16146103f2576040517f08c379a00000000000000000000000000000000000000000000000000000000081526004016103e990610994565b60405180910390fd5b565b6000604051905090565b600080fd5b600080fd5b600080fd5b600080fd5b6000601f19601f8301169050919050565b7f4e487b7100000000000000000000000000000000000000000000000000000000600052604160045260246000fd5b61045b82610412565b810181811067ffffffffffffffff8211171561047a57610479610423565b5b80604052505050565b600061048d6103f4565b90506104998282610452565b919050565b600067ffffffffffffffff8211156104b9576104b8610423565b5b6104c282610412565b9050602081019050919050565b82818337600083830152505050565b60006104f16104ec8461049e565b610483565b90508281526020810184848401111561050d5761050c61040d565b5b6105188482856104cf565b509392505050565b600082601f83011261053557610534610408565b5b81356105458482602086016104de565b91505092915050565b600060208284031215610564576105636103fe565b5b600082013567ffffffffffffffff81111561058257610581610403565b5b61058e84828501610520565b91505092915050565b6000819050919050565b6105aa81610597565b82525050565b6000819050919050565b6105c3816105b0565b82525050565b60008115159050919050565b6105de816105c9565b82525050565b60006060820190506105f960008301866105a1565b61060660208301856105ba565b61061360408301846105d5565b949350505050565b600080fd5b600080fd5b60008083601f84011261063b5761063a610408565b5b8235905067ffffffffffffffff8111156106585761065761061b565b5b60208301915083600182028301111561067457610673610620565b5b9250929050565b61068481610597565b811461068f57600080fd5b50565b6000813590506106a18161067b565b92915050565b6106b0816105b0565b81146106bb57600080fd5b50565b6000813590506106cd816106a7565b92915050565b600080600080606085870312156106ed576106ec6103fe565b5b600085013567ffffffffffffffff81111561070b5761070a610403565b5b61071787828801610625565b9450945050602061072a87828801610692565b925050604061073b878288016106be565b91505092959194509250565b600073ffffffffffffffffffffffffffffffffffffffff82169050919050565b600061077282610747565b9050919050565b61078281610767565b82525050565b600060208201905061079d6000830184610779565b92915050565b600080602083850312156107ba576107b96103fe565b5b600083013567ffffffffffffffff8111156107d8576107d7610403565b5b6107e485828601610625565b92509250509250929050565b600081905092915050565b600061080783856107f0565b93506108148385846104cf565b82840190509392505050565b600061082d8284866107fb565b91508190509392505050565b600082825260208201905092915050565b7f5265636f7264206973206e6f74207265766f6b65640000000000000000000000600082015250565b6000610880601583610839565b915061088b8261084a565b602082019050919050565b600060208201905081810360008301526108af81610873565b9050919050565b7f5265636f726420697320616c7265616479207265766f6b656400000000000000600082015250565b60006108ec601983610839565b91506108f7826108b6565b602082019050919050565b6000602082019050818103600083015261091b816108df565b9050919050565b7f4f6e6c792074686520556e69766572736974792063616e20706572666f726d2060008201527f7468697320616374696f6e000000000000000000000000000000000000000000602082015250565b600061097e602b83610839565b915061098982610922565b604082019050919050565b600060208201905081810360008301526109ad81610971565b905091905056fea2646970667358221220cfae8d290f223af008fd11fe566469df91332c490f0f0be1115625c575e00ff664736f6c63430008130033",
    "linkReferences": {}
  },
  "methodIdentifiers": {
    "addRecord(string,bytes32,uint256)": "5f43cac3",
    "owner()": "8da5cb5b",
    "records(string)": "541e771d",
    "restoreRecord(string)": "9f8246ce",
    "revokeRecord(string)": "c8468316"
  },
  "id": 16
}